{
  "_format": "hh-sol-artifact-1",
  "contractName": "Exchange",
  "sourceName": "contracts/Exchange.sol",
  "abi": [
    {
      "inputs": [],
      "stateMutability": "nonpayable",
      "type": "constructor"
    },
    {
      "inputs": [],
      "name": "assetCount",
      "outputs": [
        {
          "internalType": "uint256",
          "name": "",
          "type": "uint256"
        }
      ],
      "stateMutability": "view",
      "type": "function"
    },
    {
      "inputs": [
        {
          "internalType": "uint256",
          "name": "",
          "type": "uint256"
        }
      ],
      "name": "assets",
      "outputs": [
        {
          "internalType": "uint256",
          "name": "id",
          "type": "uint256"
        },
        {
          "internalType": "address",
          "name": "owner",
          "type": "address"
        },
        {
          "internalType": "string",
          "name": "symbol",
          "type": "string"
        },
        {
          "internalType": "string",
          "name": "description",
          "type": "string"
        },
        {
          "internalType": "uint256",
          "name": "initialOffer",
          "type": "uint256"
        },
        {
          "internalType": "uint256",
          "name": "currentOffer",
          "type": "uint256"
        },
        {
          "internalType": "uint256",
          "name": "askPrice",
          "type": "uint256"
        },
        {
          "internalType": "uint256",
          "name": "lastPrice",
          "type": "uint256"
        },
        {
          "internalType": "uint256",
          "name": "bidPrice",
          "type": "uint256"
        },
        {
          "internalType": "uint256",
          "name": "creationTime",
          "type": "uint256"
        }
      ],
      "stateMutability": "view",
      "type": "function"
    },
    {
      "inputs": [],
      "name": "assetsLength",
      "outputs": [
        {
          "internalType": "uint256",
          "name": "",
          "type": "uint256"
        }
      ],
      "stateMutability": "view",
      "type": "function"
    },
    {
      "inputs": [
        {
          "internalType": "address",
          "name": "_owner",
          "type": "address"
        },
        {
          "internalType": "string",
          "name": "_symbol",
          "type": "string"
        },
        {
          "internalType": "string",
          "name": "_description",
          "type": "string"
        },
        {
          "internalType": "uint256",
          "name": "price",
          "type": "uint256"
        },
        {
          "internalType": "uint256",
          "name": "offer",
          "type": "uint256"
        }
      ],
      "name": "createAsset",
      "outputs": [],
      "stateMutability": "nonpayable",
      "type": "function"
    },
    {
      "inputs": [
        {
          "internalType": "uint256",
          "name": "_index",
          "type": "uint256"
        }
      ],
      "name": "getAsset",
      "outputs": [
        {
          "components": [
            {
              "internalType": "uint256",
              "name": "id",
              "type": "uint256"
            },
            {
              "internalType": "address",
              "name": "owner",
              "type": "address"
            },
            {
              "internalType": "string",
              "name": "symbol",
              "type": "string"
            },
            {
              "internalType": "string",
              "name": "description",
              "type": "string"
            },
            {
              "internalType": "uint256",
              "name": "initialOffer",
              "type": "uint256"
            },
            {
              "internalType": "uint256",
              "name": "currentOffer",
              "type": "uint256"
            },
            {
              "internalType": "uint256",
              "name": "askPrice",
              "type": "uint256"
            },
            {
              "internalType": "uint256",
              "name": "lastPrice",
              "type": "uint256"
            },
            {
              "internalType": "uint256",
              "name": "bidPrice",
              "type": "uint256"
            },
            {
              "components": [
                {
                  "internalType": "address",
                  "name": "submitter",
                  "type": "address"
                },
                {
                  "internalType": "uint256",
                  "name": "quantity",
                  "type": "uint256"
                },
                {
                  "internalType": "uint256",
                  "name": "price",
                  "type": "uint256"
                },
                {
                  "internalType": "bool",
                  "name": "isBuy",
                  "type": "bool"
                },
                {
                  "internalType": "uint256",
                  "name": "creationTime",
                  "type": "uint256"
                }
              ],
              "internalType": "struct Exchange.Order[]",
              "name": "orders",
              "type": "tuple[]"
            },
            {
              "components": [
                {
                  "internalType": "address",
                  "name": "from",
                  "type": "address"
                },
                {
                  "internalType": "address",
                  "name": "to",
                  "type": "address"
                },
                {
                  "internalType": "uint256",
                  "name": "quantity",
                  "type": "uint256"
                },
                {
                  "internalType": "uint256",
                  "name": "price",
                  "type": "uint256"
                },
                {
                  "internalType": "bool",
                  "name": "isBuy",
                  "type": "bool"
                },
                {
                  "internalType": "uint256",
                  "name": "creationTime",
                  "type": "uint256"
                }
              ],
              "internalType": "struct Exchange.Trade[]",
              "name": "trades",
              "type": "tuple[]"
            },
            {
              "internalType": "uint256",
              "name": "creationTime",
              "type": "uint256"
            }
          ],
          "internalType": "struct Exchange.Asset",
          "name": "",
          "type": "tuple"
        }
      ],
      "stateMutability": "view",
      "type": "function"
    },
    {
      "inputs": [
        {
          "internalType": "string",
          "name": "_symbol",
          "type": "string"
        },
        {
          "internalType": "uint256",
          "name": "_index",
          "type": "uint256"
        }
      ],
      "name": "getOrder",
      "outputs": [
        {
          "components": [
            {
              "internalType": "address",
              "name": "submitter",
              "type": "address"
            },
            {
              "internalType": "uint256",
              "name": "quantity",
              "type": "uint256"
            },
            {
              "internalType": "uint256",
              "name": "price",
              "type": "uint256"
            },
            {
              "internalType": "bool",
              "name": "isBuy",
              "type": "bool"
            },
            {
              "internalType": "uint256",
              "name": "creationTime",
              "type": "uint256"
            }
          ],
          "internalType": "struct Exchange.Order",
          "name": "",
          "type": "tuple"
        }
      ],
      "stateMutability": "view",
      "type": "function"
    },
    {
      "inputs": [
        {
          "internalType": "string",
          "name": "_symbol",
          "type": "string"
        },
        {
          "internalType": "uint256",
          "name": "_index",
          "type": "uint256"
        }
      ],
      "name": "getTrade",
      "outputs": [
        {
          "components": [
            {
              "internalType": "address",
              "name": "from",
              "type": "address"
            },
            {
              "internalType": "address",
              "name": "to",
              "type": "address"
            },
            {
              "internalType": "uint256",
              "name": "quantity",
              "type": "uint256"
            },
            {
              "internalType": "uint256",
              "name": "price",
              "type": "uint256"
            },
            {
              "internalType": "bool",
              "name": "isBuy",
              "type": "bool"
            },
            {
              "internalType": "uint256",
              "name": "creationTime",
              "type": "uint256"
            }
          ],
          "internalType": "struct Exchange.Trade",
          "name": "",
          "type": "tuple"
        }
      ],
      "stateMutability": "view",
      "type": "function"
    },
    {
      "inputs": [],
      "name": "listAssets",
      "outputs": [
        {
          "components": [
            {
              "internalType": "uint256",
              "name": "id",
              "type": "uint256"
            },
            {
              "internalType": "address",
              "name": "owner",
              "type": "address"
            },
            {
              "internalType": "string",
              "name": "symbol",
              "type": "string"
            },
            {
              "internalType": "string",
              "name": "description",
              "type": "string"
            },
            {
              "internalType": "uint256",
              "name": "initialOffer",
              "type": "uint256"
            },
            {
              "internalType": "uint256",
              "name": "currentOffer",
              "type": "uint256"
            },
            {
              "internalType": "uint256",
              "name": "askPrice",
              "type": "uint256"
            },
            {
              "internalType": "uint256",
              "name": "lastPrice",
              "type": "uint256"
            },
            {
              "internalType": "uint256",
              "name": "bidPrice",
              "type": "uint256"
            },
            {
              "components": [
                {
                  "internalType": "address",
                  "name": "submitter",
                  "type": "address"
                },
                {
                  "internalType": "uint256",
                  "name": "quantity",
                  "type": "uint256"
                },
                {
                  "internalType": "uint256",
                  "name": "price",
                  "type": "uint256"
                },
                {
                  "internalType": "bool",
                  "name": "isBuy",
                  "type": "bool"
                },
                {
                  "internalType": "uint256",
                  "name": "creationTime",
                  "type": "uint256"
                }
              ],
              "internalType": "struct Exchange.Order[]",
              "name": "orders",
              "type": "tuple[]"
            },
            {
              "components": [
                {
                  "internalType": "address",
                  "name": "from",
                  "type": "address"
                },
                {
                  "internalType": "address",
                  "name": "to",
                  "type": "address"
                },
                {
                  "internalType": "uint256",
                  "name": "quantity",
                  "type": "uint256"
                },
                {
                  "internalType": "uint256",
                  "name": "price",
                  "type": "uint256"
                },
                {
                  "internalType": "bool",
                  "name": "isBuy",
                  "type": "bool"
                },
                {
                  "internalType": "uint256",
                  "name": "creationTime",
                  "type": "uint256"
                }
              ],
              "internalType": "struct Exchange.Trade[]",
              "name": "trades",
              "type": "tuple[]"
            },
            {
              "internalType": "uint256",
              "name": "creationTime",
              "type": "uint256"
            }
          ],
          "internalType": "struct Exchange.Asset[]",
          "name": "",
          "type": "tuple[]"
        }
      ],
      "stateMutability": "view",
      "type": "function"
    },
    {
      "inputs": [],
      "name": "name",
      "outputs": [
        {
          "internalType": "string",
          "name": "",
          "type": "string"
        }
      ],
      "stateMutability": "view",
      "type": "function"
    },
    {
      "inputs": [
        {
          "internalType": "string",
          "name": "_symbol",
          "type": "string"
        }
      ],
      "name": "ordersLength",
      "outputs": [
        {
          "internalType": "uint256",
          "name": "",
          "type": "uint256"
        }
      ],
      "stateMutability": "view",
      "type": "function"
    },
    {
      "inputs": [
        {
          "internalType": "string",
          "name": "_symbol",
          "type": "string"
        },
        {
          "internalType": "address",
          "name": "to",
          "type": "address"
        },
        {
          "internalType": "uint256",
          "name": "_quantity",
          "type": "uint256"
        },
        {
          "internalType": "uint256",
          "name": "_price",
          "type": "uint256"
        },
        {
          "internalType": "bool",
          "name": "_type",
          "type": "bool"
        }
      ],
      "name": "placeOrder",
      "outputs": [],
      "stateMutability": "nonpayable",
      "type": "function"
    },
    {
      "inputs": [
        {
          "internalType": "string",
          "name": "_symbol",
          "type": "string"
        }
      ],
      "name": "tradesLength",
      "outputs": [
        {
          "internalType": "uint256",
          "name": "",
          "type": "uint256"
        }
      ],
      "stateMutability": "view",
      "type": "function"
    }
  ],
  "bytecode": "0x60806040523480156200001157600080fd5b506040518060400160405280600a81526020017f546865204d61726b657400000000000000000000000000000000000000000000815250600090805190602001906200005f92919062000390565b50620000e5306040518060400160405280600381526020017f53505800000000000000000000000000000000000000000000000000000000008152506040518060400160405280600d81526020017f5326502035303020496e64657800000000000000000000000000000000000000815250620612a4620f4240620001d960201b60201c565b6200016a306040518060400160405280600481526020017f49584943000000000000000000000000000000000000000000000000000000008152506040518060400160405280601281526020017f555320436f6d706f7369746520496e64657800000000000000000000000000008152506211fe36620f4240620001d960201b60201c565b620001d3306040518060400160405280600381526020017f444a490000000000000000000000000000000000000000000000000000000000815250604051806060016040528060228152602001620032ef6022913962303071620f4240620001d960201b60201c565b6200069c565b600284511162000220576040517f08c379a00000000000000000000000000000000000000000000000000000000081526004016200021790620004c7565b60405180910390fd5b6005835111801562000233575060338351105b62000275576040517f08c379a00000000000000000000000000000000000000000000000000000000081526004016200026c906200055f565b60405180910390fd5b60018081600181540180825580915050039060005260206000209050506000600160025481548110620002ad57620002ac62000581565b5b90600052602060002090600c02019050600254816000018190555084816002019080519060200190620002e292919062000390565b5083816003019080519060200190620002fd92919062000390565b50858160010160006101000a81548173ffffffffffffffffffffffffffffffffffffffff021916908373ffffffffffffffffffffffffffffffffffffffff160217905550818160040181905550818160050181905550828160070181905550828160080181905550828160060181905550600260008154809291906200038390620005e9565b9190505550505050505050565b8280546200039e9062000666565b90600052602060002090601f016020900481019282620003c257600085556200040e565b82601f10620003dd57805160ff19168380011785556200040e565b828001600101855582156200040e579182015b828111156200040d578251825591602001919060010190620003f0565b5b5090506200041d919062000421565b5090565b5b808211156200043c57600081600090555060010162000422565b5090565b600082825260208201905092915050565b7f53796d626f6c206d757374206861766520697473206c656e677468206772656160008201527f746572207468616e203200000000000000000000000000000000000000000000602082015250565b6000620004af602a8362000440565b9150620004bc8262000451565b604082019050919050565b60006020820190508181036000830152620004e281620004a0565b9050919050565b7f4465736372697074696f6e206d757374206861766520697473206c656e67746860008201527f206265747765656e203620616e64203530206368617261637465727300000000602082015250565b600062000547603c8362000440565b91506200055482620004e9565b604082019050919050565b600060208201905081810360008301526200057a8162000538565b9050919050565b7f4e487b7100000000000000000000000000000000000000000000000000000000600052603260045260246000fd5b7f4e487b7100000000000000000000000000000000000000000000000000000000600052601160045260246000fd5b6000819050919050565b6000620005f682620005df565b91507fffffffffffffffffffffffffffffffffffffffffffffffffffffffffffffffff8214156200062c576200062b620005b0565b5b600182019050919050565b7f4e487b7100000000000000000000000000000000000000000000000000000000600052602260045260246000fd5b600060028204905060018216806200067f57607f821691505b6020821081141562000696576200069562000637565b5b50919050565b612c4380620006ac6000396000f3fe608060405234801561001057600080fd5b50600436106100b45760003560e01c8063d4af25d911610071578063d4af25d9146101bc578063eac8f5b8146101ec578063eadeb9a31461021c578063eafe7a741461023a578063f50477a214610258578063ff7bfc6c14610276576100b4565b806306fdde03146100b9578063691bd5f5146100d75780636a20c50614610107578063721defbc14610123578063c01b0c6c14610153578063cf35bdd014610183575b600080fd5b6100c1610292565b6040516100ce9190611c80565b60405180910390f35b6100f160048036038101906100ec9190611e21565b610320565b6040516100fe9190611f50565b60405180910390f35b610121600480360381019061011c9190611fc3565b61041d565b005b61013d60048036038101906101389190611e21565b610886565b60405161014a91906120d5565b60405180910390f35b61016d600480360381019061016891906120f0565b6109d9565b60405161017a9190612148565b60405180910390f35b61019d60048036038101906101989190612163565b610a18565b6040516101b39a9998979695949392919061219f565b60405180910390f35b6101d660048036038101906101d191906120f0565b610bac565b6040516101e39190612148565b60405180910390f35b61020660048036038101906102019190612163565b610beb565b60405161021391906125ed565b60405180910390f35b61022461101a565b60405161023191906127ea565b60405180910390f35b61024261146c565b60405161024f9190612148565b60405180910390f35b610260611472565b60405161026d9190612148565b60405180910390f35b610290600480360381019061028b919061280c565b61147f565b005b6000805461029f906128ee565b80601f01602080910402602001604051908101604052809291908181526020018280546102cb906128ee565b80156103185780601f106102ed57610100808354040283529160200191610318565b820191906000526020600020905b8154815290600101906020018083116102fb57829003601f168201915b505050505081565b610328611a22565b600061033384611626565b90506001818154811061034957610348612920565b5b90600052602060002090600c0201600901838154811061036c5761036b612920565b5b90600052602060002090600502016040518060a00160405290816000820160009054906101000a900473ffffffffffffffffffffffffffffffffffffffff1673ffffffffffffffffffffffffffffffffffffffff1673ffffffffffffffffffffffffffffffffffffffff16815260200160018201548152602001600282015481526020016003820160009054906101000a900460ff1615151515815260200160048201548152505091505092915050565b600061042886611626565b905060007fffffffffffffffffffffffffffffffffffffffffffffffffffffffffffffffff905060006001838154811061046557610464612920565b5b90600052602060002090600c020160090180549050905060005b8181101561055757856001858154811061049c5761049b612920565b5b90600052602060002090600c020160090182815481106104bf576104be612920565b5b9060005260206000209060050201600201541480156105375750841515600185815481106104f0576104ef612920565b5b90600052602060002090600c0201600901828154811061051357610512612920565b5b906000526020600020906005020160030160009054906101000a900460ff16151514155b1561054457809250610557565b808061054f9061297e565b91505061047f565b5060008212156106805760006040518060a001604052808973ffffffffffffffffffffffffffffffffffffffff1681526020018881526020018781526020018615158152602001428152509050600184815481106105b8576105b7612920565b5b90600052602060002090600c020160090181908060018154018082558091505060019003906000526020600020906005020160009091909190915060008201518160000160006101000a81548173ffffffffffffffffffffffffffffffffffffffff021916908373ffffffffffffffffffffffffffffffffffffffff160217905550602082015181600101556040820151816002015560608201518160030160006101000a81548160ff0219169083151502179055506080820151816004015550505061087c565b600082905060006001858154811061069b5761069a612920565b5b90600052602060002090600c020160090182815481106106be576106bd612920565b5b906000526020600020906005020160000160009054906101000a900473ffffffffffffffffffffffffffffffffffffffff16905060006040518060c001604052808373ffffffffffffffffffffffffffffffffffffffff1681526020018b73ffffffffffffffffffffffffffffffffffffffff1681526020018a8152602001898152602001881515815260200142815250905061075b86846117ac565b6001868154811061076f5761076e612920565b5b90600052602060002090600c0201600a0181908060018154018082558091505060019003906000526020600020906006020160009091909190915060008201518160000160006101000a81548173ffffffffffffffffffffffffffffffffffffffff021916908373ffffffffffffffffffffffffffffffffffffffff16021790555060208201518160010160006101000a81548173ffffffffffffffffffffffffffffffffffffffff021916908373ffffffffffffffffffffffffffffffffffffffff160217905550604082015181600201556060820151816003015560808201518160040160006101000a81548160ff02191690831515021790555060a0820151816005015550505050505b5050505050505050565b61088e611a69565b600061089984611626565b9050600181815481106108af576108ae612920565b5b90600052602060002090600c0201600a0183815481106108d2576108d1612920565b5b90600052602060002090600602016040518060c00160405290816000820160009054906101000a900473ffffffffffffffffffffffffffffffffffffffff1673ffffffffffffffffffffffffffffffffffffffff1673ffffffffffffffffffffffffffffffffffffffff1681526020016001820160009054906101000a900473ffffffffffffffffffffffffffffffffffffffff1673ffffffffffffffffffffffffffffffffffffffff1673ffffffffffffffffffffffffffffffffffffffff16815260200160028201548152602001600382015481526020016004820160009054906101000a900460ff1615151515815260200160058201548152505091505092915050565b6000806109e583611626565b9050600181815481106109fb576109fa612920565b5b90600052602060002090600c0201600a0180549050915050919050565b60018181548110610a2857600080fd5b90600052602060002090600c02016000915090508060000154908060010160009054906101000a900473ffffffffffffffffffffffffffffffffffffffff1690806002018054610a77906128ee565b80601f0160208091040260200160405190810160405280929190818152602001828054610aa3906128ee565b8015610af05780601f10610ac557610100808354040283529160200191610af0565b820191906000526020600020905b815481529060010190602001808311610ad357829003601f168201915b505050505090806003018054610b05906128ee565b80601f0160208091040260200160405190810160405280929190818152602001828054610b31906128ee565b8015610b7e5780601f10610b5357610100808354040283529160200191610b7e565b820191906000526020600020905b815481529060010190602001808311610b6157829003601f168201915b50505050509080600401549080600501549080600601549080600701549080600801549080600b015490508a565b600080610bb883611626565b905060018181548110610bce57610bcd612920565b5b90600052602060002090600c020160090180549050915050919050565b610bf3611acd565b60018281548110610c0757610c06612920565b5b90600052602060002090600c020160405180610180016040529081600082015481526020016001820160009054906101000a900473ffffffffffffffffffffffffffffffffffffffff1673ffffffffffffffffffffffffffffffffffffffff1673ffffffffffffffffffffffffffffffffffffffff168152602001600282018054610c91906128ee565b80601f0160208091040260200160405190810160405280929190818152602001828054610cbd906128ee565b8015610d0a5780601f10610cdf57610100808354040283529160200191610d0a565b820191906000526020600020905b815481529060010190602001808311610ced57829003601f168201915b50505050508152602001600382018054610d23906128ee565b80601f0160208091040260200160405190810160405280929190818152602001828054610d4f906128ee565b8015610d9c5780601f10610d7157610100808354040283529160200191610d9c565b820191906000526020600020905b815481529060010190602001808311610d7f57829003601f168201915b50505050508152602001600482015481526020016005820154815260200160068201548152602001600782015481526020016008820154815260200160098201805480602002602001604051908101604052809291908181526020016000905b82821015610ebd57838290600052602060002090600502016040518060a00160405290816000820160009054906101000a900473ffffffffffffffffffffffffffffffffffffffff1673ffffffffffffffffffffffffffffffffffffffff1673ffffffffffffffffffffffffffffffffffffffff16815260200160018201548152602001600282015481526020016003820160009054906101000a900460ff1615151515815260200160048201548152505081526020019060010190610dfc565b505050508152602001600a8201805480602002602001604051908101604052809291908181526020016000905b8282101561100157838290600052602060002090600602016040518060c00160405290816000820160009054906101000a900473ffffffffffffffffffffffffffffffffffffffff1673ffffffffffffffffffffffffffffffffffffffff1673ffffffffffffffffffffffffffffffffffffffff1681526020016001820160009054906101000a900473ffffffffffffffffffffffffffffffffffffffff1673ffffffffffffffffffffffffffffffffffffffff1673ffffffffffffffffffffffffffffffffffffffff16815260200160028201548152602001600382015481526020016004820160009054906101000a900460ff1615151515815260200160058201548152505081526020019060010190610eea565b505050508152602001600b820154815250509050919050565b60606001805480602002602001604051908101604052809291908181526020016000905b8282101561146357838290600052602060002090600c020160405180610180016040529081600082015481526020016001820160009054906101000a900473ffffffffffffffffffffffffffffffffffffffff1673ffffffffffffffffffffffffffffffffffffffff1673ffffffffffffffffffffffffffffffffffffffff1681526020016002820180546110d2906128ee565b80601f01602080910402602001604051908101604052809291908181526020018280546110fe906128ee565b801561114b5780601f106111205761010080835404028352916020019161114b565b820191906000526020600020905b81548152906001019060200180831161112e57829003601f168201915b50505050508152602001600382018054611164906128ee565b80601f0160208091040260200160405190810160405280929190818152602001828054611190906128ee565b80156111dd5780601f106111b2576101008083540402835291602001916111dd565b820191906000526020600020905b8154815290600101906020018083116111c057829003601f168201915b50505050508152602001600482015481526020016005820154815260200160068201548152602001600782015481526020016008820154815260200160098201805480602002602001604051908101604052809291908181526020016000905b828210156112fe57838290600052602060002090600502016040518060a00160405290816000820160009054906101000a900473ffffffffffffffffffffffffffffffffffffffff1673ffffffffffffffffffffffffffffffffffffffff1673ffffffffffffffffffffffffffffffffffffffff16815260200160018201548152602001600282015481526020016003820160009054906101000a900460ff161515151581526020016004820154815250508152602001906001019061123d565b505050508152602001600a8201805480602002602001604051908101604052809291908181526020016000905b8282101561144257838290600052602060002090600602016040518060c00160405290816000820160009054906101000a900473ffffffffffffffffffffffffffffffffffffffff1673ffffffffffffffffffffffffffffffffffffffff1673ffffffffffffffffffffffffffffffffffffffff1681526020016001820160009054906101000a900473ffffffffffffffffffffffffffffffffffffffff1673ffffffffffffffffffffffffffffffffffffffff1673ffffffffffffffffffffffffffffffffffffffff16815260200160028201548152602001600382015481526020016004820160009054906101000a900460ff161515151581526020016005820154815250508152602001906001019061132b565b505050508152602001600b820154815250508152602001906001019061103e565b50505050905090565b60025481565b6000600180549050905090565b60028451116114c3576040517f08c379a00000000000000000000000000000000000000000000000000000000081526004016114ba90612a39565b60405180910390fd5b600583511180156114d5575060338351105b611514576040517f08c379a000000000000000000000000000000000000000000000000000000000815260040161150b90612acb565b60405180910390fd5b6001808160018154018082558091505003906000526020600020905050600060016002548154811061154957611548612920565b5b90600052602060002090600c0201905060025481600001819055508481600201908051906020019061157c929190611b44565b5083816003019080519060200190611595929190611b44565b50858160010160006101000a81548173ffffffffffffffffffffffffffffffffffffffff021916908373ffffffffffffffffffffffffffffffffffffffff160217905550818160040181905550818160050181905550828160070181905550828160080181905550828160060181905550600260008154809291906116199061297e565b9190505550505050505050565b600080600180549050905060007fffffffffffffffffffffffffffffffffffffffffffffffffffffffffffffffff905060005b8281101561175d576117186001828154811061167857611677612920565b5b90600052602060002090600c02016002018054611694906128ee565b80601f01602080910402602001604051908101604052809291908181526020018280546116c0906128ee565b801561170d5780601f106116e25761010080835404028352916020019161170d565b820191906000526020600020905b8154815290600101906020018083116116f057829003601f168201915b5050505050866119c9565b1561174a576001818154811061173157611730612920565b5b90600052602060002090600c020160000154915061175d565b80806117559061297e565b915050611659565b5060008112156117a2576040517f08c379a000000000000000000000000000000000000000000000000000000000815260040161179990612b37565b60405180910390fd5b8092505050919050565b600060018084815481106117c3576117c2612920565b5b90600052602060002090600c0201600901805490506117e29190612b57565b9050600183815481106117f8576117f7612920565b5b90600052602060002090600c0201600901818154811061181b5761181a612920565b5b90600052602060002090600502016001848154811061183d5761183c612920565b5b90600052602060002090600c020160090183815481106118605761185f612920565b5b90600052602060002090600502016000820160009054906101000a900473ffffffffffffffffffffffffffffffffffffffff168160000160006101000a81548173ffffffffffffffffffffffffffffffffffffffff021916908373ffffffffffffffffffffffffffffffffffffffff16021790555060018201548160010155600282015481600201556003820160009054906101000a900460ff168160030160006101000a81548160ff021916908315150217905550600482015481600401559050506001838154811061193757611936612920565b5b90600052602060002090600c020160090180548061195857611957612b8b565b5b6001900381819060005260206000209060050201600080820160006101000a81549073ffffffffffffffffffffffffffffffffffffffff0219169055600182016000905560028201600090556003820160006101000a81549060ff0219169055600482016000905550509055505050565b6000816040516020016119dc9190612bf6565b6040516020818303038152906040528051906020012083604051602001611a039190612bf6565b6040516020818303038152906040528051906020012014905092915050565b6040518060a00160405280600073ffffffffffffffffffffffffffffffffffffffff1681526020016000815260200160008152602001600015158152602001600081525090565b6040518060c00160405280600073ffffffffffffffffffffffffffffffffffffffff168152602001600073ffffffffffffffffffffffffffffffffffffffff1681526020016000815260200160008152602001600015158152602001600081525090565b60405180610180016040528060008152602001600073ffffffffffffffffffffffffffffffffffffffff168152602001606081526020016060815260200160008152602001600081526020016000815260200160008152602001600081526020016060815260200160608152602001600081525090565b828054611b50906128ee565b90600052602060002090601f016020900481019282611b725760008555611bb9565b82601f10611b8b57805160ff1916838001178555611bb9565b82800160010185558215611bb9579182015b82811115611bb8578251825591602001919060010190611b9d565b5b509050611bc69190611bca565b5090565b5b80821115611be3576000816000905550600101611bcb565b5090565b600081519050919050565b600082825260208201905092915050565b60005b83811015611c21578082015181840152602081019050611c06565b83811115611c30576000848401525b50505050565b6000601f19601f8301169050919050565b6000611c5282611be7565b611c5c8185611bf2565b9350611c6c818560208601611c03565b611c7581611c36565b840191505092915050565b60006020820190508181036000830152611c9a8184611c47565b905092915050565b6000604051905090565b600080fd5b600080fd5b600080fd5b600080fd5b7f4e487b7100000000000000000000000000000000000000000000000000000000600052604160045260246000fd5b611cf882611c36565b810181811067ffffffffffffffff82111715611d1757611d16611cc0565b5b80604052505050565b6000611d2a611ca2565b9050611d368282611cef565b919050565b600067ffffffffffffffff821115611d5657611d55611cc0565b5b611d5f82611c36565b9050602081019050919050565b82818337600083830152505050565b6000611d8e611d8984611d3b565b611d20565b905082815260208101848484011115611daa57611da9611cbb565b5b611db5848285611d6c565b509392505050565b600082601f830112611dd257611dd1611cb6565b5b8135611de2848260208601611d7b565b91505092915050565b6000819050919050565b611dfe81611deb565b8114611e0957600080fd5b50565b600081359050611e1b81611df5565b92915050565b60008060408385031215611e3857611e37611cac565b5b600083013567ffffffffffffffff811115611e5657611e55611cb1565b5b611e6285828601611dbd565b9250506020611e7385828601611e0c565b9150509250929050565b600073ffffffffffffffffffffffffffffffffffffffff82169050919050565b6000611ea882611e7d565b9050919050565b611eb881611e9d565b82525050565b611ec781611deb565b82525050565b60008115159050919050565b611ee281611ecd565b82525050565b60a082016000820151611efe6000850182611eaf565b506020820151611f116020850182611ebe565b506040820151611f246040850182611ebe565b506060820151611f376060850182611ed9565b506080820151611f4a6080850182611ebe565b50505050565b600060a082019050611f656000830184611ee8565b92915050565b611f7481611e9d565b8114611f7f57600080fd5b50565b600081359050611f9181611f6b565b92915050565b611fa081611ecd565b8114611fab57600080fd5b50565b600081359050611fbd81611f97565b92915050565b600080600080600060a08688031215611fdf57611fde611cac565b5b600086013567ffffffffffffffff811115611ffd57611ffc611cb1565b5b61200988828901611dbd565b955050602061201a88828901611f82565b945050604061202b88828901611e0c565b935050606061203c88828901611e0c565b925050608061204d88828901611fae565b9150509295509295909350565b60c0820160008201516120706000850182611eaf565b5060208201516120836020850182611eaf565b5060408201516120966040850182611ebe565b5060608201516120a96060850182611ebe565b5060808201516120bc6080850182611ed9565b5060a08201516120cf60a0850182611ebe565b50505050565b600060c0820190506120ea600083018461205a565b92915050565b60006020828403121561210657612105611cac565b5b600082013567ffffffffffffffff81111561212457612123611cb1565b5b61213084828501611dbd565b91505092915050565b61214281611deb565b82525050565b600060208201905061215d6000830184612139565b92915050565b60006020828403121561217957612178611cac565b5b600061218784828501611e0c565b91505092915050565b61219981611e9d565b82525050565b6000610140820190506121b5600083018d612139565b6121c2602083018c612190565b81810360408301526121d4818b611c47565b905081810360608301526121e8818a611c47565b90506121f76080830189612139565b61220460a0830188612139565b61221160c0830187612139565b61221e60e0830186612139565b61222c610100830185612139565b61223a610120830184612139565b9b9a5050505050505050505050565b600082825260208201905092915050565b600061226582611be7565b61226f8185612249565b935061227f818560208601611c03565b61228881611c36565b840191505092915050565b600081519050919050565b600082825260208201905092915050565b6000819050602082019050919050565b60a0820160008201516122d56000850182611eaf565b5060208201516122e86020850182611ebe565b5060408201516122fb6040850182611ebe565b50606082015161230e6060850182611ed9565b5060808201516123216080850182611ebe565b50505050565b600061233383836122bf565b60a08301905092915050565b6000602082019050919050565b600061235782612293565b612361818561229e565b935061236c836122af565b8060005b8381101561239d5781516123848882612327565b975061238f8361233f565b925050600181019050612370565b5085935050505092915050565b600081519050919050565b600082825260208201905092915050565b6000819050602082019050919050565b60c0820160008201516123ec6000850182611eaf565b5060208201516123ff6020850182611eaf565b5060408201516124126040850182611ebe565b5060608201516124256060850182611ebe565b5060808201516124386080850182611ed9565b5060a082015161244b60a0850182611ebe565b50505050565b600061245d83836123d6565b60c08301905092915050565b6000602082019050919050565b6000612481826123aa565b61248b81856123b5565b9350612496836123c6565b8060005b838110156124c75781516124ae8882612451565b97506124b983612469565b92505060018101905061249a565b5085935050505092915050565b6000610180830160008301516124ed6000860182611ebe565b5060208301516125006020860182611eaf565b5060408301518482036040860152612518828261225a565b91505060608301518482036060860152612532828261225a565b91505060808301516125476080860182611ebe565b5060a083015161255a60a0860182611ebe565b5060c083015161256d60c0860182611ebe565b5060e083015161258060e0860182611ebe565b50610100830151612595610100860182611ebe565b506101208301518482036101208601526125af828261234c565b9150506101408301518482036101408601526125cb8282612476565b9150506101608301516125e2610160860182611ebe565b508091505092915050565b6000602082019050818103600083015261260781846124d4565b905092915050565b600081519050919050565b600082825260208201905092915050565b6000819050602082019050919050565b6000610180830160008301516126546000860182611ebe565b5060208301516126676020860182611eaf565b506040830151848203604086015261267f828261225a565b91505060608301518482036060860152612699828261225a565b91505060808301516126ae6080860182611ebe565b5060a08301516126c160a0860182611ebe565b5060c08301516126d460c0860182611ebe565b5060e08301516126e760e0860182611ebe565b506101008301516126fc610100860182611ebe565b50610120830151848203610120860152612716828261234c565b9150506101408301518482036101408601526127328282612476565b915050610160830151612749610160860182611ebe565b508091505092915050565b6000612760838361263b565b905092915050565b6000602082019050919050565b60006127808261260f565b61278a818561261a565b93508360208202850161279c8561262b565b8060005b858110156127d857848403895281516127b98582612754565b94506127c483612768565b925060208a019950506001810190506127a0565b50829750879550505050505092915050565b600060208201905081810360008301526128048184612775565b905092915050565b600080600080600060a0868803121561282857612827611cac565b5b600061283688828901611f82565b955050602086013567ffffffffffffffff81111561285757612856611cb1565b5b61286388828901611dbd565b945050604086013567ffffffffffffffff81111561288457612883611cb1565b5b61289088828901611dbd565b93505060606128a188828901611e0c565b92505060806128b288828901611e0c565b9150509295509295909350565b7f4e487b7100000000000000000000000000000000000000000000000000000000600052602260045260246000fd5b6000600282049050600182168061290657607f821691505b6020821081141561291a576129196128bf565b5b50919050565b7f4e487b7100000000000000000000000000000000000000000000000000000000600052603260045260246000fd5b7f4e487b7100000000000000000000000000000000000000000000000000000000600052601160045260246000fd5b600061298982611deb565b91507fffffffffffffffffffffffffffffffffffffffffffffffffffffffffffffffff8214156129bc576129bb61294f565b5b600182019050919050565b7f53796d626f6c206d757374206861766520697473206c656e677468206772656160008201527f746572207468616e203200000000000000000000000000000000000000000000602082015250565b6000612a23602a83611bf2565b9150612a2e826129c7565b604082019050919050565b60006020820190508181036000830152612a5281612a16565b9050919050565b7f4465736372697074696f6e206d757374206861766520697473206c656e67746860008201527f206265747765656e203620616e64203530206368617261637465727300000000602082015250565b6000612ab5603c83611bf2565b9150612ac082612a59565b604082019050919050565b60006020820190508181036000830152612ae481612aa8565b9050919050565b7f496e76616c69642041737365742053796d626f6c000000000000000000000000600082015250565b6000612b21601483611bf2565b9150612b2c82612aeb565b602082019050919050565b60006020820190508181036000830152612b5081612b14565b9050919050565b6000612b6282611deb565b9150612b6d83611deb565b925082821015612b8057612b7f61294f565b5b828203905092915050565b7f4e487b7100000000000000000000000000000000000000000000000000000000600052603160045260246000fd5b600081905092915050565b6000612bd082611be7565b612bda8185612bba565b9350612bea818560208601611c03565b80840191505092915050565b6000612c028284612bc5565b91508190509291505056fea26469706673582212205b5f875294ff0d2ed64468c95d66d1cc8d20187781979f63b451777ad485f6f664736f6c63430008090033446f77204a6f6e657320496e647573747269616c204176657261676520496e646578",
  "linkReferences": {},
  "deployedLinkReferences": {}
}