{
  "_format": "hh-sol-artifact-1",
  "contractName": "Exchange",
  "sourceName": "contracts/Exchange.sol",
  "abi": [
    {
      "inputs": [],
      "stateMutability": "nonpayable",
      "type": "constructor"
    },
    {
      "inputs": [],
      "name": "assetCount",
      "outputs": [
        {
          "internalType": "uint256",
          "name": "",
          "type": "uint256"
        }
      ],
      "stateMutability": "view",
      "type": "function"
    },
    {
      "inputs": [
        {
          "internalType": "uint256",
          "name": "",
          "type": "uint256"
        }
      ],
      "name": "assets",
      "outputs": [
        {
          "internalType": "uint256",
          "name": "id",
          "type": "uint256"
        },
        {
          "internalType": "address",
          "name": "owner",
          "type": "address"
        },
        {
          "internalType": "string",
          "name": "symbol",
          "type": "string"
        },
        {
          "internalType": "string",
          "name": "description",
          "type": "string"
        },
        {
          "internalType": "uint256",
          "name": "initialOffer",
          "type": "uint256"
        },
        {
          "internalType": "uint256",
          "name": "currentOffer",
          "type": "uint256"
        },
        {
          "internalType": "uint256",
          "name": "askPrice",
          "type": "uint256"
        },
        {
          "internalType": "uint256",
          "name": "lastPrice",
          "type": "uint256"
        },
        {
          "internalType": "uint256",
          "name": "bidPrice",
          "type": "uint256"
        },
        {
          "internalType": "uint256",
          "name": "creationTime",
          "type": "uint256"
        }
      ],
      "stateMutability": "view",
      "type": "function"
    },
    {
      "inputs": [],
      "name": "assetsLength",
      "outputs": [
        {
          "internalType": "uint256",
          "name": "",
          "type": "uint256"
        }
      ],
      "stateMutability": "view",
      "type": "function"
    },
    {
      "inputs": [
        {
          "internalType": "address",
          "name": "_owner",
          "type": "address"
        },
        {
          "internalType": "string",
          "name": "_symbol",
          "type": "string"
        },
        {
          "internalType": "string",
          "name": "_description",
          "type": "string"
        },
        {
          "internalType": "uint256",
          "name": "price",
          "type": "uint256"
        },
        {
          "internalType": "uint256",
          "name": "offer",
          "type": "uint256"
        }
      ],
      "name": "createAsset",
      "outputs": [],
      "stateMutability": "nonpayable",
      "type": "function"
    },
    {
      "inputs": [
        {
          "internalType": "uint256",
          "name": "_index",
          "type": "uint256"
        }
      ],
      "name": "getAsset",
      "outputs": [
        {
          "components": [
            {
              "internalType": "uint256",
              "name": "id",
              "type": "uint256"
            },
            {
              "internalType": "address",
              "name": "owner",
              "type": "address"
            },
            {
              "internalType": "string",
              "name": "symbol",
              "type": "string"
            },
            {
              "internalType": "string",
              "name": "description",
              "type": "string"
            },
            {
              "internalType": "uint256",
              "name": "initialOffer",
              "type": "uint256"
            },
            {
              "internalType": "uint256",
              "name": "currentOffer",
              "type": "uint256"
            },
            {
              "internalType": "uint256",
              "name": "askPrice",
              "type": "uint256"
            },
            {
              "internalType": "uint256",
              "name": "lastPrice",
              "type": "uint256"
            },
            {
              "internalType": "uint256",
              "name": "bidPrice",
              "type": "uint256"
            },
            {
              "components": [
                {
                  "internalType": "address",
                  "name": "submitter",
                  "type": "address"
                },
                {
                  "internalType": "uint256",
                  "name": "quantity",
                  "type": "uint256"
                },
                {
                  "internalType": "uint256",
                  "name": "price",
                  "type": "uint256"
                },
                {
                  "internalType": "bool",
                  "name": "isBuy",
                  "type": "bool"
                },
                {
                  "internalType": "uint256",
                  "name": "creationTime",
                  "type": "uint256"
                }
              ],
              "internalType": "struct Exchange.Order[]",
              "name": "orders",
              "type": "tuple[]"
            },
            {
              "components": [
                {
                  "internalType": "address",
                  "name": "from",
                  "type": "address"
                },
                {
                  "internalType": "address",
                  "name": "to",
                  "type": "address"
                },
                {
                  "internalType": "uint256",
                  "name": "quantity",
                  "type": "uint256"
                },
                {
                  "internalType": "uint256",
                  "name": "price",
                  "type": "uint256"
                },
                {
                  "internalType": "bool",
                  "name": "isBuy",
                  "type": "bool"
                },
                {
                  "internalType": "uint256",
                  "name": "creationTime",
                  "type": "uint256"
                }
              ],
              "internalType": "struct Exchange.Trade[]",
              "name": "trades",
              "type": "tuple[]"
            },
            {
              "internalType": "uint256",
              "name": "creationTime",
              "type": "uint256"
            }
          ],
          "internalType": "struct Exchange.Asset",
          "name": "",
          "type": "tuple"
        }
      ],
      "stateMutability": "view",
      "type": "function"
    },
    {
      "inputs": [
        {
          "internalType": "string",
          "name": "_symbol",
          "type": "string"
        },
        {
          "internalType": "uint256",
          "name": "_index",
          "type": "uint256"
        }
      ],
      "name": "getOrder",
      "outputs": [
        {
          "components": [
            {
              "internalType": "address",
              "name": "submitter",
              "type": "address"
            },
            {
              "internalType": "uint256",
              "name": "quantity",
              "type": "uint256"
            },
            {
              "internalType": "uint256",
              "name": "price",
              "type": "uint256"
            },
            {
              "internalType": "bool",
              "name": "isBuy",
              "type": "bool"
            },
            {
              "internalType": "uint256",
              "name": "creationTime",
              "type": "uint256"
            }
          ],
          "internalType": "struct Exchange.Order",
          "name": "",
          "type": "tuple"
        }
      ],
      "stateMutability": "view",
      "type": "function"
    },
    {
      "inputs": [
        {
          "internalType": "string",
          "name": "_symbol",
          "type": "string"
        },
        {
          "internalType": "uint256",
          "name": "_index",
          "type": "uint256"
        }
      ],
      "name": "getTrade",
      "outputs": [
        {
          "components": [
            {
              "internalType": "address",
              "name": "from",
              "type": "address"
            },
            {
              "internalType": "address",
              "name": "to",
              "type": "address"
            },
            {
              "internalType": "uint256",
              "name": "quantity",
              "type": "uint256"
            },
            {
              "internalType": "uint256",
              "name": "price",
              "type": "uint256"
            },
            {
              "internalType": "bool",
              "name": "isBuy",
              "type": "bool"
            },
            {
              "internalType": "uint256",
              "name": "creationTime",
              "type": "uint256"
            }
          ],
          "internalType": "struct Exchange.Trade",
          "name": "",
          "type": "tuple"
        }
      ],
      "stateMutability": "view",
      "type": "function"
    },
    {
      "inputs": [
        {
          "internalType": "string",
          "name": "_symbol",
          "type": "string"
        }
      ],
      "name": "ordersLength",
      "outputs": [
        {
          "internalType": "uint256",
          "name": "",
          "type": "uint256"
        }
      ],
      "stateMutability": "view",
      "type": "function"
    },
    {
      "inputs": [
        {
          "internalType": "string",
          "name": "_symbol",
          "type": "string"
        },
        {
          "internalType": "address",
          "name": "to",
          "type": "address"
        },
        {
          "internalType": "uint256",
          "name": "_quantity",
          "type": "uint256"
        },
        {
          "internalType": "uint256",
          "name": "_price",
          "type": "uint256"
        },
        {
          "internalType": "bool",
          "name": "_type",
          "type": "bool"
        }
      ],
      "name": "placeOrder",
      "outputs": [],
      "stateMutability": "nonpayable",
      "type": "function"
    },
    {
      "inputs": [
        {
          "internalType": "string",
          "name": "_symbol",
          "type": "string"
        }
      ],
      "name": "tradesLength",
      "outputs": [
        {
          "internalType": "uint256",
          "name": "",
          "type": "uint256"
        }
      ],
      "stateMutability": "view",
      "type": "function"
    }
  ],
  "bytecode": "0x608060405234801561001057600080fd5b506124f0806100206000396000f3fe608060405234801561001057600080fd5b506004361061009e5760003560e01c8063d4af25d911610066578063d4af25d914610188578063eac8f5b8146101b8578063eafe7a74146101e8578063f50477a214610206578063ff7bfc6c146102245761009e565b8063691bd5f5146100a35780636a20c506146100d3578063721defbc146100ef578063c01b0c6c1461011f578063cf35bdd01461014f575b600080fd5b6100bd60048036038101906100b89190611843565b610240565b6040516100ca9190611972565b60405180910390f35b6100ed60048036038101906100e891906119e5565b61033d565b005b61010960048036038101906101049190611843565b6107a4565b6040516101169190611af7565b60405180910390f35b61013960048036038101906101349190611b12565b6108f7565b6040516101469190611b6a565b60405180910390f35b61016960048036038101906101649190611b85565b610936565b60405161017f9a99989796959493929190611c49565b60405180910390f35b6101a2600480360381019061019d9190611b12565b610aca565b6040516101af9190611b6a565b60405180910390f35b6101d260048036038101906101cd9190611b85565b610b09565b6040516101df9190612097565b60405180910390f35b6101f0610f38565b6040516101fd9190611b6a565b60405180910390f35b61020e610f3e565b60405161021b9190611b6a565b60405180910390f35b61023e600480360381019061023991906120b9565b610f4a565b005b6102486114ee565b6000610253846110f1565b9050600081815481106102695761026861216c565b5b90600052602060002090600c0201600901838154811061028c5761028b61216c565b5b90600052602060002090600502016040518060a00160405290816000820160009054906101000a900473ffffffffffffffffffffffffffffffffffffffff1673ffffffffffffffffffffffffffffffffffffffff1673ffffffffffffffffffffffffffffffffffffffff16815260200160018201548152602001600282015481526020016003820160009054906101000a900460ff1615151515815260200160048201548152505091505092915050565b6000610348866110f1565b905060007fffffffffffffffffffffffffffffffffffffffffffffffffffffffffffffffff905060008083815481106103845761038361216c565b5b90600052602060002090600c020160090180549050905060005b818110156104765785600085815481106103bb576103ba61216c565b5b90600052602060002090600c020160090182815481106103de576103dd61216c565b5b90600052602060002090600502016002015414801561045657508415156000858154811061040f5761040e61216c565b5b90600052602060002090600c020160090182815481106104325761043161216c565b5b906000526020600020906005020160030160009054906101000a900460ff16151514155b1561046357809250610476565b808061046e906121ca565b91505061039e565b50600082121561059f5760006040518060a001604052808973ffffffffffffffffffffffffffffffffffffffff1681526020018881526020018781526020018615158152602001428152509050600084815481106104d7576104d661216c565b5b90600052602060002090600c020160090181908060018154018082558091505060019003906000526020600020906005020160009091909190915060008201518160000160006101000a81548173ffffffffffffffffffffffffffffffffffffffff021916908373ffffffffffffffffffffffffffffffffffffffff160217905550602082015181600101556040820151816002015560608201518160030160006101000a81548160ff0219169083151502179055506080820151816004015550505061079a565b600082905060008085815481106105b9576105b861216c565b5b90600052602060002090600c020160090182815481106105dc576105db61216c565b5b906000526020600020906005020160000160009054906101000a900473ffffffffffffffffffffffffffffffffffffffff16905060006040518060c001604052808373ffffffffffffffffffffffffffffffffffffffff1681526020018b73ffffffffffffffffffffffffffffffffffffffff1681526020018a815260200189815260200188151581526020014281525090506106798684611277565b6000868154811061068d5761068c61216c565b5b90600052602060002090600c0201600a0181908060018154018082558091505060019003906000526020600020906006020160009091909190915060008201518160000160006101000a81548173ffffffffffffffffffffffffffffffffffffffff021916908373ffffffffffffffffffffffffffffffffffffffff16021790555060208201518160010160006101000a81548173ffffffffffffffffffffffffffffffffffffffff021916908373ffffffffffffffffffffffffffffffffffffffff160217905550604082015181600201556060820151816003015560808201518160040160006101000a81548160ff02191690831515021790555060a0820151816005015550505050505b5050505050505050565b6107ac611535565b60006107b7846110f1565b9050600081815481106107cd576107cc61216c565b5b90600052602060002090600c0201600a0183815481106107f0576107ef61216c565b5b90600052602060002090600602016040518060c00160405290816000820160009054906101000a900473ffffffffffffffffffffffffffffffffffffffff1673ffffffffffffffffffffffffffffffffffffffff1673ffffffffffffffffffffffffffffffffffffffff1681526020016001820160009054906101000a900473ffffffffffffffffffffffffffffffffffffffff1673ffffffffffffffffffffffffffffffffffffffff1673ffffffffffffffffffffffffffffffffffffffff16815260200160028201548152602001600382015481526020016004820160009054906101000a900460ff1615151515815260200160058201548152505091505092915050565b600080610903836110f1565b9050600081815481106109195761091861216c565b5b90600052602060002090600c0201600a0180549050915050919050565b6000818154811061094657600080fd5b90600052602060002090600c02016000915090508060000154908060010160009054906101000a900473ffffffffffffffffffffffffffffffffffffffff169080600201805461099590612242565b80601f01602080910402602001604051908101604052809291908181526020018280546109c190612242565b8015610a0e5780601f106109e357610100808354040283529160200191610a0e565b820191906000526020600020905b8154815290600101906020018083116109f157829003601f168201915b505050505090806003018054610a2390612242565b80601f0160208091040260200160405190810160405280929190818152602001828054610a4f90612242565b8015610a9c5780601f10610a7157610100808354040283529160200191610a9c565b820191906000526020600020905b815481529060010190602001808311610a7f57829003601f168201915b50505050509080600401549080600501549080600601549080600701549080600801549080600b015490508a565b600080610ad6836110f1565b905060008181548110610aec57610aeb61216c565b5b90600052602060002090600c020160090180549050915050919050565b610b11611599565b60008281548110610b2557610b2461216c565b5b90600052602060002090600c020160405180610180016040529081600082015481526020016001820160009054906101000a900473ffffffffffffffffffffffffffffffffffffffff1673ffffffffffffffffffffffffffffffffffffffff1673ffffffffffffffffffffffffffffffffffffffff168152602001600282018054610baf90612242565b80601f0160208091040260200160405190810160405280929190818152602001828054610bdb90612242565b8015610c285780601f10610bfd57610100808354040283529160200191610c28565b820191906000526020600020905b815481529060010190602001808311610c0b57829003601f168201915b50505050508152602001600382018054610c4190612242565b80601f0160208091040260200160405190810160405280929190818152602001828054610c6d90612242565b8015610cba5780601f10610c8f57610100808354040283529160200191610cba565b820191906000526020600020905b815481529060010190602001808311610c9d57829003601f168201915b50505050508152602001600482015481526020016005820154815260200160068201548152602001600782015481526020016008820154815260200160098201805480602002602001604051908101604052809291908181526020016000905b82821015610ddb57838290600052602060002090600502016040518060a00160405290816000820160009054906101000a900473ffffffffffffffffffffffffffffffffffffffff1673ffffffffffffffffffffffffffffffffffffffff1673ffffffffffffffffffffffffffffffffffffffff16815260200160018201548152602001600282015481526020016003820160009054906101000a900460ff1615151515815260200160048201548152505081526020019060010190610d1a565b505050508152602001600a8201805480602002602001604051908101604052809291908181526020016000905b82821015610f1f57838290600052602060002090600602016040518060c00160405290816000820160009054906101000a900473ffffffffffffffffffffffffffffffffffffffff1673ffffffffffffffffffffffffffffffffffffffff1673ffffffffffffffffffffffffffffffffffffffff1681526020016001820160009054906101000a900473ffffffffffffffffffffffffffffffffffffffff1673ffffffffffffffffffffffffffffffffffffffff1673ffffffffffffffffffffffffffffffffffffffff16815260200160028201548152602001600382015481526020016004820160009054906101000a900460ff1615151515815260200160058201548152505081526020019060010190610e08565b505050508152602001600b820154815250509050919050565b60015481565b60008080549050905090565b6005845114610f8e576040517f08c379a0000000000000000000000000000000000000000000000000000000008152600401610f85906122e6565b60405180910390fd5b60058351118015610fa0575060338351105b610fdf576040517f08c379a0000000000000000000000000000000000000000000000000000000008152600401610fd690612378565b60405180910390fd5b600060018160018154018082558091505003906000526020600020905050600080600154815481106110145761101361216c565b5b90600052602060002090600c02019050600154816000018190555084816002019080519060200190611047929190611610565b5083816003019080519060200190611060929190611610565b50858160010160006101000a81548173ffffffffffffffffffffffffffffffffffffffff021916908373ffffffffffffffffffffffffffffffffffffffff160217905550818160040181905550818160050181905550828160070181905550828160080181905550828160060181905550600160008154809291906110e4906121ca565b9190505550505050505050565b600080600080549050905060007fffffffffffffffffffffffffffffffffffffffffffffffffffffffffffffffff905060005b82811015611228576111e3600082815481106111435761114261216c565b5b90600052602060002090600c0201600201805461115f90612242565b80601f016020809104026020016040519081016040528092919081815260200182805461118b90612242565b80156111d85780601f106111ad576101008083540402835291602001916111d8565b820191906000526020600020905b8154815290600101906020018083116111bb57829003601f168201915b505050505086611495565b1561121557600081815481106111fc576111fb61216c565b5b90600052602060002090600c0201600001549150611228565b8080611220906121ca565b915050611124565b50600081121561126d576040517f08c379a0000000000000000000000000000000000000000000000000000000008152600401611264906123e4565b60405180910390fd5b8092505050919050565b600060016000848154811061128f5761128e61216c565b5b90600052602060002090600c0201600901805490506112ae9190612404565b9050600083815481106112c4576112c361216c565b5b90600052602060002090600c020160090181815481106112e7576112e661216c565b5b9060005260206000209060050201600084815481106113095761130861216c565b5b90600052602060002090600c0201600901838154811061132c5761132b61216c565b5b90600052602060002090600502016000820160009054906101000a900473ffffffffffffffffffffffffffffffffffffffff168160000160006101000a81548173ffffffffffffffffffffffffffffffffffffffff021916908373ffffffffffffffffffffffffffffffffffffffff16021790555060018201548160010155600282015481600201556003820160009054906101000a900460ff168160030160006101000a81548160ff02191690831515021790555060048201548160040155905050600083815481106114035761140261216c565b5b90600052602060002090600c020160090180548061142457611423612438565b5b6001900381819060005260206000209060050201600080820160006101000a81549073ffffffffffffffffffffffffffffffffffffffff0219169055600182016000905560028201600090556003820160006101000a81549060ff0219169055600482016000905550509055505050565b6000816040516020016114a891906124a3565b60405160208183030381529060405280519060200120836040516020016114cf91906124a3565b6040516020818303038152906040528051906020012014905092915050565b6040518060a00160405280600073ffffffffffffffffffffffffffffffffffffffff1681526020016000815260200160008152602001600015158152602001600081525090565b6040518060c00160405280600073ffffffffffffffffffffffffffffffffffffffff168152602001600073ffffffffffffffffffffffffffffffffffffffff1681526020016000815260200160008152602001600015158152602001600081525090565b60405180610180016040528060008152602001600073ffffffffffffffffffffffffffffffffffffffff168152602001606081526020016060815260200160008152602001600081526020016000815260200160008152602001600081526020016060815260200160608152602001600081525090565b82805461161c90612242565b90600052602060002090601f01602090048101928261163e5760008555611685565b82601f1061165757805160ff1916838001178555611685565b82800160010185558215611685579182015b82811115611684578251825591602001919060010190611669565b5b5090506116929190611696565b5090565b5b808211156116af576000816000905550600101611697565b5090565b6000604051905090565b600080fd5b600080fd5b600080fd5b600080fd5b6000601f19601f8301169050919050565b7f4e487b7100000000000000000000000000000000000000000000000000000000600052604160045260246000fd5b61171a826116d1565b810181811067ffffffffffffffff82111715611739576117386116e2565b5b80604052505050565b600061174c6116b3565b90506117588282611711565b919050565b600067ffffffffffffffff821115611778576117776116e2565b5b611781826116d1565b9050602081019050919050565b82818337600083830152505050565b60006117b06117ab8461175d565b611742565b9050828152602081018484840111156117cc576117cb6116cc565b5b6117d784828561178e565b509392505050565b600082601f8301126117f4576117f36116c7565b5b813561180484826020860161179d565b91505092915050565b6000819050919050565b6118208161180d565b811461182b57600080fd5b50565b60008135905061183d81611817565b92915050565b6000806040838503121561185a576118596116bd565b5b600083013567ffffffffffffffff811115611878576118776116c2565b5b611884858286016117df565b92505060206118958582860161182e565b9150509250929050565b600073ffffffffffffffffffffffffffffffffffffffff82169050919050565b60006118ca8261189f565b9050919050565b6118da816118bf565b82525050565b6118e98161180d565b82525050565b60008115159050919050565b611904816118ef565b82525050565b60a08201600082015161192060008501826118d1565b50602082015161193360208501826118e0565b50604082015161194660408501826118e0565b50606082015161195960608501826118fb565b50608082015161196c60808501826118e0565b50505050565b600060a082019050611987600083018461190a565b92915050565b611996816118bf565b81146119a157600080fd5b50565b6000813590506119b38161198d565b92915050565b6119c2816118ef565b81146119cd57600080fd5b50565b6000813590506119df816119b9565b92915050565b600080600080600060a08688031215611a0157611a006116bd565b5b600086013567ffffffffffffffff811115611a1f57611a1e6116c2565b5b611a2b888289016117df565b9550506020611a3c888289016119a4565b9450506040611a4d8882890161182e565b9350506060611a5e8882890161182e565b9250506080611a6f888289016119d0565b9150509295509295909350565b60c082016000820151611a9260008501826118d1565b506020820151611aa560208501826118d1565b506040820151611ab860408501826118e0565b506060820151611acb60608501826118e0565b506080820151611ade60808501826118fb565b5060a0820151611af160a08501826118e0565b50505050565b600060c082019050611b0c6000830184611a7c565b92915050565b600060208284031215611b2857611b276116bd565b5b600082013567ffffffffffffffff811115611b4657611b456116c2565b5b611b52848285016117df565b91505092915050565b611b648161180d565b82525050565b6000602082019050611b7f6000830184611b5b565b92915050565b600060208284031215611b9b57611b9a6116bd565b5b6000611ba98482850161182e565b91505092915050565b611bbb816118bf565b82525050565b600081519050919050565b600082825260208201905092915050565b60005b83811015611bfb578082015181840152602081019050611be0565b83811115611c0a576000848401525b50505050565b6000611c1b82611bc1565b611c258185611bcc565b9350611c35818560208601611bdd565b611c3e816116d1565b840191505092915050565b600061014082019050611c5f600083018d611b5b565b611c6c602083018c611bb2565b8181036040830152611c7e818b611c10565b90508181036060830152611c92818a611c10565b9050611ca16080830189611b5b565b611cae60a0830188611b5b565b611cbb60c0830187611b5b565b611cc860e0830186611b5b565b611cd6610100830185611b5b565b611ce4610120830184611b5b565b9b9a5050505050505050505050565b600082825260208201905092915050565b6000611d0f82611bc1565b611d198185611cf3565b9350611d29818560208601611bdd565b611d32816116d1565b840191505092915050565b600081519050919050565b600082825260208201905092915050565b6000819050602082019050919050565b60a082016000820151611d7f60008501826118d1565b506020820151611d9260208501826118e0565b506040820151611da560408501826118e0565b506060820151611db860608501826118fb565b506080820151611dcb60808501826118e0565b50505050565b6000611ddd8383611d69565b60a08301905092915050565b6000602082019050919050565b6000611e0182611d3d565b611e0b8185611d48565b9350611e1683611d59565b8060005b83811015611e47578151611e2e8882611dd1565b9750611e3983611de9565b925050600181019050611e1a565b5085935050505092915050565b600081519050919050565b600082825260208201905092915050565b6000819050602082019050919050565b60c082016000820151611e9660008501826118d1565b506020820151611ea960208501826118d1565b506040820151611ebc60408501826118e0565b506060820151611ecf60608501826118e0565b506080820151611ee260808501826118fb565b5060a0820151611ef560a08501826118e0565b50505050565b6000611f078383611e80565b60c08301905092915050565b6000602082019050919050565b6000611f2b82611e54565b611f358185611e5f565b9350611f4083611e70565b8060005b83811015611f71578151611f588882611efb565b9750611f6383611f13565b925050600181019050611f44565b5085935050505092915050565b600061018083016000830151611f9760008601826118e0565b506020830151611faa60208601826118d1565b5060408301518482036040860152611fc28282611d04565b91505060608301518482036060860152611fdc8282611d04565b9150506080830151611ff160808601826118e0565b5060a083015161200460a08601826118e0565b5060c083015161201760c08601826118e0565b5060e083015161202a60e08601826118e0565b5061010083015161203f6101008601826118e0565b506101208301518482036101208601526120598282611df6565b9150506101408301518482036101408601526120758282611f20565b91505061016083015161208c6101608601826118e0565b508091505092915050565b600060208201905081810360008301526120b18184611f7e565b905092915050565b600080600080600060a086880312156120d5576120d46116bd565b5b60006120e3888289016119a4565b955050602086013567ffffffffffffffff811115612104576121036116c2565b5b612110888289016117df565b945050604086013567ffffffffffffffff811115612131576121306116c2565b5b61213d888289016117df565b935050606061214e8882890161182e565b925050608061215f8882890161182e565b9150509295509295909350565b7f4e487b7100000000000000000000000000000000000000000000000000000000600052603260045260246000fd5b7f4e487b7100000000000000000000000000000000000000000000000000000000600052601160045260246000fd5b60006121d58261180d565b91507fffffffffffffffffffffffffffffffffffffffffffffffffffffffffffffffff8214156122085761220761219b565b5b600182019050919050565b7f4e487b7100000000000000000000000000000000000000000000000000000000600052602260045260246000fd5b6000600282049050600182168061225a57607f821691505b6020821081141561226e5761226d612213565b5b50919050565b7f53796d626f6c206d757374206861766520697473206c656e677468206571756160008201527f6c7320746f203500000000000000000000000000000000000000000000000000602082015250565b60006122d0602783611bcc565b91506122db82612274565b604082019050919050565b600060208201905081810360008301526122ff816122c3565b9050919050565b7f4465736372697074696f6e206d757374206861766520697473206c656e67746860008201527f206265747765656e203620616e64203530206368617261637465727300000000602082015250565b6000612362603c83611bcc565b915061236d82612306565b604082019050919050565b6000602082019050818103600083015261239181612355565b9050919050565b7f496e76616c69642041737365742053796d626f6c000000000000000000000000600082015250565b60006123ce601483611bcc565b91506123d982612398565b602082019050919050565b600060208201905081810360008301526123fd816123c1565b9050919050565b600061240f8261180d565b915061241a8361180d565b92508282101561242d5761242c61219b565b5b828203905092915050565b7f4e487b7100000000000000000000000000000000000000000000000000000000600052603160045260246000fd5b600081905092915050565b600061247d82611bc1565b6124878185612467565b9350612497818560208601611bdd565b80840191505092915050565b60006124af8284612472565b91508190509291505056fea2646970667358221220379138caf6efa166a80ef88da11f065e164cc138ac24b1599af2a24989139a3664736f6c63430008090033",
  "linkReferences": {},
  "deployedLinkReferences": {}
}