{
  "_format": "hh-sol-artifact-1",
  "contractName": "Exchange",
  "sourceName": "contracts/Exchange.sol",
  "abi": [
    {
      "inputs": [],
      "stateMutability": "nonpayable",
      "type": "constructor"
    },
    {
      "inputs": [],
      "name": "assetCount",
      "outputs": [
        {
          "internalType": "uint256",
          "name": "",
          "type": "uint256"
        }
      ],
      "stateMutability": "view",
      "type": "function"
    },
    {
      "inputs": [
        {
          "internalType": "uint256",
          "name": "",
          "type": "uint256"
        }
      ],
      "name": "assets",
      "outputs": [
        {
          "internalType": "uint256",
          "name": "id",
          "type": "uint256"
        },
        {
          "internalType": "address",
          "name": "owner",
          "type": "address"
        },
        {
          "internalType": "string",
          "name": "symbol",
          "type": "string"
        },
        {
          "internalType": "string",
          "name": "description",
          "type": "string"
        },
        {
          "internalType": "uint256",
          "name": "initialOffer",
          "type": "uint256"
        },
        {
          "internalType": "uint256",
          "name": "currentOffer",
          "type": "uint256"
        },
        {
          "internalType": "uint256",
          "name": "askPrice",
          "type": "uint256"
        },
        {
          "internalType": "uint256",
          "name": "lastPrice",
          "type": "uint256"
        },
        {
          "internalType": "uint256",
          "name": "bidPrice",
          "type": "uint256"
        },
        {
          "internalType": "uint256",
          "name": "creationTime",
          "type": "uint256"
        }
      ],
      "stateMutability": "view",
      "type": "function"
    },
    {
      "inputs": [],
      "name": "assetsLength",
      "outputs": [
        {
          "internalType": "uint256",
          "name": "",
          "type": "uint256"
        }
      ],
      "stateMutability": "view",
      "type": "function"
    },
    {
      "inputs": [
        {
          "internalType": "address",
          "name": "_owner",
          "type": "address"
        },
        {
          "internalType": "string",
          "name": "_symbol",
          "type": "string"
        },
        {
          "internalType": "string",
          "name": "_description",
          "type": "string"
        },
        {
          "internalType": "uint256",
          "name": "price",
          "type": "uint256"
        },
        {
          "internalType": "uint256",
          "name": "offer",
          "type": "uint256"
        }
      ],
      "name": "createAsset",
      "outputs": [],
      "stateMutability": "nonpayable",
      "type": "function"
    },
    {
      "inputs": [
        {
          "internalType": "uint256",
          "name": "_index",
          "type": "uint256"
        }
      ],
      "name": "getAsset",
      "outputs": [
        {
          "components": [
            {
              "internalType": "uint256",
              "name": "id",
              "type": "uint256"
            },
            {
              "internalType": "address",
              "name": "owner",
              "type": "address"
            },
            {
              "internalType": "string",
              "name": "symbol",
              "type": "string"
            },
            {
              "internalType": "string",
              "name": "description",
              "type": "string"
            },
            {
              "internalType": "uint256",
              "name": "initialOffer",
              "type": "uint256"
            },
            {
              "internalType": "uint256",
              "name": "currentOffer",
              "type": "uint256"
            },
            {
              "internalType": "uint256",
              "name": "askPrice",
              "type": "uint256"
            },
            {
              "internalType": "uint256",
              "name": "lastPrice",
              "type": "uint256"
            },
            {
              "internalType": "uint256",
              "name": "bidPrice",
              "type": "uint256"
            },
            {
              "components": [
                {
                  "internalType": "address",
                  "name": "submitter",
                  "type": "address"
                },
                {
                  "internalType": "uint256",
                  "name": "quantity",
                  "type": "uint256"
                },
                {
                  "internalType": "uint256",
                  "name": "price",
                  "type": "uint256"
                },
                {
                  "internalType": "bool",
                  "name": "isBuy",
                  "type": "bool"
                },
                {
                  "internalType": "uint256",
                  "name": "creationTime",
                  "type": "uint256"
                }
              ],
              "internalType": "struct Exchange.Order[]",
              "name": "orders",
              "type": "tuple[]"
            },
            {
              "components": [
                {
                  "internalType": "address",
                  "name": "from",
                  "type": "address"
                },
                {
                  "internalType": "address",
                  "name": "to",
                  "type": "address"
                },
                {
                  "internalType": "uint256",
                  "name": "quantity",
                  "type": "uint256"
                },
                {
                  "internalType": "uint256",
                  "name": "price",
                  "type": "uint256"
                },
                {
                  "internalType": "bool",
                  "name": "isBuy",
                  "type": "bool"
                },
                {
                  "internalType": "uint256",
                  "name": "creationTime",
                  "type": "uint256"
                }
              ],
              "internalType": "struct Exchange.Trade[]",
              "name": "trades",
              "type": "tuple[]"
            },
            {
              "internalType": "uint256",
              "name": "creationTime",
              "type": "uint256"
            }
          ],
          "internalType": "struct Exchange.Asset",
          "name": "",
          "type": "tuple"
        }
      ],
      "stateMutability": "view",
      "type": "function"
    },
    {
      "inputs": [
        {
          "internalType": "string",
          "name": "_symbol",
          "type": "string"
        },
        {
          "internalType": "uint256",
          "name": "_index",
          "type": "uint256"
        }
      ],
      "name": "getOrder",
      "outputs": [
        {
          "components": [
            {
              "internalType": "address",
              "name": "submitter",
              "type": "address"
            },
            {
              "internalType": "uint256",
              "name": "quantity",
              "type": "uint256"
            },
            {
              "internalType": "uint256",
              "name": "price",
              "type": "uint256"
            },
            {
              "internalType": "bool",
              "name": "isBuy",
              "type": "bool"
            },
            {
              "internalType": "uint256",
              "name": "creationTime",
              "type": "uint256"
            }
          ],
          "internalType": "struct Exchange.Order",
          "name": "",
          "type": "tuple"
        }
      ],
      "stateMutability": "view",
      "type": "function"
    },
    {
      "inputs": [
        {
          "internalType": "string",
          "name": "_symbol",
          "type": "string"
        },
        {
          "internalType": "uint256",
          "name": "_index",
          "type": "uint256"
        }
      ],
      "name": "getTrade",
      "outputs": [
        {
          "components": [
            {
              "internalType": "address",
              "name": "from",
              "type": "address"
            },
            {
              "internalType": "address",
              "name": "to",
              "type": "address"
            },
            {
              "internalType": "uint256",
              "name": "quantity",
              "type": "uint256"
            },
            {
              "internalType": "uint256",
              "name": "price",
              "type": "uint256"
            },
            {
              "internalType": "bool",
              "name": "isBuy",
              "type": "bool"
            },
            {
              "internalType": "uint256",
              "name": "creationTime",
              "type": "uint256"
            }
          ],
          "internalType": "struct Exchange.Trade",
          "name": "",
          "type": "tuple"
        }
      ],
      "stateMutability": "view",
      "type": "function"
    },
    {
      "inputs": [],
      "name": "listAssets",
      "outputs": [
        {
          "components": [
            {
              "internalType": "uint256",
              "name": "id",
              "type": "uint256"
            },
            {
              "internalType": "address",
              "name": "owner",
              "type": "address"
            },
            {
              "internalType": "string",
              "name": "symbol",
              "type": "string"
            },
            {
              "internalType": "string",
              "name": "description",
              "type": "string"
            },
            {
              "internalType": "uint256",
              "name": "initialOffer",
              "type": "uint256"
            },
            {
              "internalType": "uint256",
              "name": "currentOffer",
              "type": "uint256"
            },
            {
              "internalType": "uint256",
              "name": "askPrice",
              "type": "uint256"
            },
            {
              "internalType": "uint256",
              "name": "lastPrice",
              "type": "uint256"
            },
            {
              "internalType": "uint256",
              "name": "bidPrice",
              "type": "uint256"
            },
            {
              "components": [
                {
                  "internalType": "address",
                  "name": "submitter",
                  "type": "address"
                },
                {
                  "internalType": "uint256",
                  "name": "quantity",
                  "type": "uint256"
                },
                {
                  "internalType": "uint256",
                  "name": "price",
                  "type": "uint256"
                },
                {
                  "internalType": "bool",
                  "name": "isBuy",
                  "type": "bool"
                },
                {
                  "internalType": "uint256",
                  "name": "creationTime",
                  "type": "uint256"
                }
              ],
              "internalType": "struct Exchange.Order[]",
              "name": "orders",
              "type": "tuple[]"
            },
            {
              "components": [
                {
                  "internalType": "address",
                  "name": "from",
                  "type": "address"
                },
                {
                  "internalType": "address",
                  "name": "to",
                  "type": "address"
                },
                {
                  "internalType": "uint256",
                  "name": "quantity",
                  "type": "uint256"
                },
                {
                  "internalType": "uint256",
                  "name": "price",
                  "type": "uint256"
                },
                {
                  "internalType": "bool",
                  "name": "isBuy",
                  "type": "bool"
                },
                {
                  "internalType": "uint256",
                  "name": "creationTime",
                  "type": "uint256"
                }
              ],
              "internalType": "struct Exchange.Trade[]",
              "name": "trades",
              "type": "tuple[]"
            },
            {
              "internalType": "uint256",
              "name": "creationTime",
              "type": "uint256"
            }
          ],
          "internalType": "struct Exchange.Asset[]",
          "name": "",
          "type": "tuple[]"
        }
      ],
      "stateMutability": "view",
      "type": "function"
    },
    {
      "inputs": [
        {
          "internalType": "uint256",
          "name": "assetID",
          "type": "uint256"
        }
      ],
      "name": "listOrders",
      "outputs": [
        {
          "components": [
            {
              "internalType": "address",
              "name": "submitter",
              "type": "address"
            },
            {
              "internalType": "uint256",
              "name": "quantity",
              "type": "uint256"
            },
            {
              "internalType": "uint256",
              "name": "price",
              "type": "uint256"
            },
            {
              "internalType": "bool",
              "name": "isBuy",
              "type": "bool"
            },
            {
              "internalType": "uint256",
              "name": "creationTime",
              "type": "uint256"
            }
          ],
          "internalType": "struct Exchange.Order[]",
          "name": "",
          "type": "tuple[]"
        }
      ],
      "stateMutability": "view",
      "type": "function"
    },
    {
      "inputs": [
        {
          "internalType": "uint256",
          "name": "assetID",
          "type": "uint256"
        }
      ],
      "name": "listTrades",
      "outputs": [
        {
          "components": [
            {
              "internalType": "address",
              "name": "from",
              "type": "address"
            },
            {
              "internalType": "address",
              "name": "to",
              "type": "address"
            },
            {
              "internalType": "uint256",
              "name": "quantity",
              "type": "uint256"
            },
            {
              "internalType": "uint256",
              "name": "price",
              "type": "uint256"
            },
            {
              "internalType": "bool",
              "name": "isBuy",
              "type": "bool"
            },
            {
              "internalType": "uint256",
              "name": "creationTime",
              "type": "uint256"
            }
          ],
          "internalType": "struct Exchange.Trade[]",
          "name": "",
          "type": "tuple[]"
        }
      ],
      "stateMutability": "view",
      "type": "function"
    },
    {
      "inputs": [],
      "name": "name",
      "outputs": [
        {
          "internalType": "string",
          "name": "",
          "type": "string"
        }
      ],
      "stateMutability": "view",
      "type": "function"
    },
    {
      "inputs": [
        {
          "internalType": "string",
          "name": "_symbol",
          "type": "string"
        }
      ],
      "name": "ordersLength",
      "outputs": [
        {
          "internalType": "uint256",
          "name": "",
          "type": "uint256"
        }
      ],
      "stateMutability": "view",
      "type": "function"
    },
    {
      "inputs": [
        {
          "internalType": "string",
          "name": "_symbol",
          "type": "string"
        },
        {
          "internalType": "address",
          "name": "to",
          "type": "address"
        },
        {
          "internalType": "uint256",
          "name": "_quantity",
          "type": "uint256"
        },
        {
          "internalType": "uint256",
          "name": "_price",
          "type": "uint256"
        },
        {
          "internalType": "bool",
          "name": "_type",
          "type": "bool"
        }
      ],
      "name": "placeOrder",
      "outputs": [],
      "stateMutability": "nonpayable",
      "type": "function"
    },
    {
      "inputs": [
        {
          "internalType": "string",
          "name": "_symbol",
          "type": "string"
        }
      ],
      "name": "tradesLength",
      "outputs": [
        {
          "internalType": "uint256",
          "name": "",
          "type": "uint256"
        }
      ],
      "stateMutability": "view",
      "type": "function"
    }
  ],
  "bytecode": "0x60806040523480156200001157600080fd5b506040518060400160405280600a81526020017f546865204d61726b657400000000000000000000000000000000000000000000815250600090805190602001906200005f92919062000d56565b50620000e5306040518060400160405280600381526020017f53505800000000000000000000000000000000000000000000000000000000008152506040518060400160405280600d81526020017f5326502035303020496e64657800000000000000000000000000000000000000815250620612a4620f4240620002cc60201b60201c565b6200016a306040518060400160405280600481526020017f49584943000000000000000000000000000000000000000000000000000000008152506040518060400160405280601281526020017f555320436f6d706f7369746520496e64657800000000000000000000000000008152506211fe36620f4240620002cc60201b60201c565b620001d3306040518060400160405280600381526020017f444a490000000000000000000000000000000000000000000000000000000000815250604051806060016040528060228152602001620042616022913962303071620f4240620002cc60201b60201c565b620002246040518060400160405280600381526020017f535058000000000000000000000000000000000000000000000000000000000081525030620f4240620612a460006200048360201b60201c565b620002756040518060400160405280600481526020017f495849430000000000000000000000000000000000000000000000000000000081525030620f42406211fe3660006200048360201b60201c565b620002c66040518060400160405280600381526020017f444a49000000000000000000000000000000000000000000000000000000000081525030620f42406230307160006200048360201b60201c565b620011da565b600284511162000313576040517f08c379a00000000000000000000000000000000000000000000000000000000081526004016200030a9062000e8d565b60405180910390fd5b6005835111801562000326575060338351105b62000368576040517f08c379a00000000000000000000000000000000000000000000000000000000081526004016200035f9062000f25565b60405180910390fd5b60018081600181540180825580915050039060005260206000209050506000600160025481548110620003a0576200039f62000f47565b5b90600052602060002090600c02019050600254816000018190555084816002019080519060200190620003d592919062000d56565b5083816003019080519060200190620003f092919062000d56565b50858160010160006101000a81548173ffffffffffffffffffffffffffffffffffffffff021916908373ffffffffffffffffffffffffffffffffffffffff16021790555081816004018190555081816005018190555082816007018190555082816008018190555082816006018190555060026000815480929190620004769062000faf565b9190505550505050505050565b600062000496866200092060201b60201c565b905060007fffffffffffffffffffffffffffffffffffffffffffffffffffffffffffffffff9050600060018381548110620004d657620004d562000f47565b5b90600052602060002090600c020160090180549050905060005b81811015620005db57856001858154811062000511576200051062000f47565b5b90600052602060002090600c0201600901828154811062000537576200053662000f47565b5b906000526020600020906005020160020154148015620005b65750841515600185815481106200056c576200056b62000f47565b5b90600052602060002090600c0201600901828154811062000592576200059162000f47565b5b906000526020600020906005020160030160009054906101000a900460ff16151514155b15620005c557809250620005db565b8080620005d29062000faf565b915050620004f0565b506000821215620007095760006040518060a001604052808973ffffffffffffffffffffffffffffffffffffffff16815260200188815260200187815260200186151581526020014281525090506001848154811062000640576200063f62000f47565b5b90600052602060002090600c020160090181908060018154018082558091505060019003906000526020600020906005020160009091909190915060008201518160000160006101000a81548173ffffffffffffffffffffffffffffffffffffffff021916908373ffffffffffffffffffffffffffffffffffffffff160217905550602082015181600101556040820151816002015560608201518160030160006101000a81548160ff0219169083151502179055506080820151816004015550505062000916565b600082905060006001858154811062000727576200072662000f47565b5b90600052602060002090600c020160090182815481106200074d576200074c62000f47565b5b906000526020600020906005020160000160009054906101000a900473ffffffffffffffffffffffffffffffffffffffff16905060006040518060c001604052808373ffffffffffffffffffffffffffffffffffffffff1681526020018b73ffffffffffffffffffffffffffffffffffffffff1681526020018a81526020018981526020018815158152602001428152509050620007f2868462000ac560201b60201c565b6001868154811062000809576200080862000f47565b5b90600052602060002090600c0201600a0181908060018154018082558091505060019003906000526020600020906006020160009091909190915060008201518160000160006101000a81548173ffffffffffffffffffffffffffffffffffffffff021916908373ffffffffffffffffffffffffffffffffffffffff16021790555060208201518160010160006101000a81548173ffffffffffffffffffffffffffffffffffffffff021916908373ffffffffffffffffffffffffffffffffffffffff160217905550604082015181600201556060820151816003015560808201518160040160006101000a81548160ff02191690831515021790555060a0820151816005015550505050505b5050505050505050565b600080600180549050905060007fffffffffffffffffffffffffffffffffffffffffffffffffffffffffffffffff905060005b8281101562000a735762000a266001828154811062000977576200097662000f47565b5b90600052602060002090600c0201600201805462000995906200102c565b80601f0160208091040260200160405190810160405280929190818152602001828054620009c3906200102c565b801562000a145780601f10620009e85761010080835404028352916020019162000a14565b820191906000526020600020905b815481529060010190602001808311620009f657829003601f168201915b50505050508662000cf960201b60201c565b1562000a5d576001818154811062000a435762000a4262000f47565b5b90600052602060002090600c020160000154915062000a73565b808062000a6a9062000faf565b91505062000953565b50600081121562000abb576040517f08c379a000000000000000000000000000000000000000000000000000000000815260040162000ab290620010b2565b60405180910390fd5b8092505050919050565b6000600180848154811062000adf5762000ade62000f47565b5b90600052602060002090600c02016009018054905062000b009190620010d4565b90506001838154811062000b195762000b1862000f47565b5b90600052602060002090600c0201600901818154811062000b3f5762000b3e62000f47565b5b90600052602060002090600502016001848154811062000b645762000b6362000f47565b5b90600052602060002090600c0201600901838154811062000b8a5762000b8962000f47565b5b90600052602060002090600502016000820160009054906101000a900473ffffffffffffffffffffffffffffffffffffffff168160000160006101000a81548173ffffffffffffffffffffffffffffffffffffffff021916908373ffffffffffffffffffffffffffffffffffffffff16021790555060018201548160010155600282015481600201556003820160009054906101000a900460ff168160030160006101000a81548160ff021916908315150217905550600482015481600401559050506001838154811062000c645762000c6362000f47565b5b90600052602060002090600c020160090180548062000c885762000c876200110f565b5b6001900381819060005260206000209060050201600080820160006101000a81549073ffffffffffffffffffffffffffffffffffffffff0219169055600182016000905560028201600090556003820160006101000a81549060ff0219169055600482016000905550509055505050565b60008160405160200162000d0e9190620011c1565b604051602081830303815290604052805190602001208360405160200162000d379190620011c1565b6040516020818303038152906040528051906020012014905092915050565b82805462000d64906200102c565b90600052602060002090601f01602090048101928262000d88576000855562000dd4565b82601f1062000da357805160ff191683800117855562000dd4565b8280016001018555821562000dd4579182015b8281111562000dd357825182559160200191906001019062000db6565b5b50905062000de3919062000de7565b5090565b5b8082111562000e0257600081600090555060010162000de8565b5090565b600082825260208201905092915050565b7f53796d626f6c206d757374206861766520697473206c656e677468206772656160008201527f746572207468616e203200000000000000000000000000000000000000000000602082015250565b600062000e75602a8362000e06565b915062000e828262000e17565b604082019050919050565b6000602082019050818103600083015262000ea88162000e66565b9050919050565b7f4465736372697074696f6e206d757374206861766520697473206c656e67746860008201527f206265747765656e203620616e64203530206368617261637465727300000000602082015250565b600062000f0d603c8362000e06565b915062000f1a8262000eaf565b604082019050919050565b6000602082019050818103600083015262000f408162000efe565b9050919050565b7f4e487b7100000000000000000000000000000000000000000000000000000000600052603260045260246000fd5b7f4e487b7100000000000000000000000000000000000000000000000000000000600052601160045260246000fd5b6000819050919050565b600062000fbc8262000fa5565b91507fffffffffffffffffffffffffffffffffffffffffffffffffffffffffffffffff82141562000ff25762000ff162000f76565b5b600182019050919050565b7f4e487b7100000000000000000000000000000000000000000000000000000000600052602260045260246000fd5b600060028204905060018216806200104557607f821691505b602082108114156200105c576200105b62000ffd565b5b50919050565b7f496e76616c69642041737365742053796d626f6c000000000000000000000000600082015250565b60006200109a60148362000e06565b9150620010a78262001062565b602082019050919050565b60006020820190508181036000830152620010cd816200108b565b9050919050565b6000620010e18262000fa5565b9150620010ee8362000fa5565b92508282101562001104576200110362000f76565b5b828203905092915050565b7f4e487b7100000000000000000000000000000000000000000000000000000000600052603160045260246000fd5b600081519050919050565b600081905092915050565b60005b838110156200117457808201518184015260208101905062001157565b8381111562001184576000848401525b50505050565b600062001197826200113e565b620011a3818562001149565b9350620011b581856020860162001154565b80840191505092915050565b6000620011cf82846200118a565b915081905092915050565b61307780620011ea6000396000f3fe608060405234801561001057600080fd5b50600436106100ea5760003560e01c8063cf35bdd01161008c578063eadeb9a311610066578063eadeb9a3146102b2578063eafe7a74146102d0578063f50477a2146102ee578063ff7bfc6c1461030c576100ea565b8063cf35bdd014610219578063d4af25d914610252578063eac8f5b814610282576100ea565b8063691bd5f5116100c8578063691bd5f51461016d5780636a20c5061461019d578063721defbc146101b9578063c01b0c6c146101e9576100ea565b806306fdde03146100ef5780632a18468d1461010d57806345eb9af91461013d575b600080fd5b6100f7610328565b6040516101049190611f92565b60405180910390f35b61012760048036038101906101229190611ffe565b6103b6565b60405161013491906121c0565b60405180910390f35b61015760048036038101906101529190611ffe565b61051f565b60405161016491906122f9565b60405180910390f35b61018760048036038101906101829190612450565b610632565b6040516101949190612514565b60405180910390f35b6101b760048036038101906101b29190612587565b61072f565b005b6101d360048036038101906101ce9190612450565b610b98565b6040516101e09190612699565b60405180910390f35b61020360048036038101906101fe91906126b4565b610ceb565b604051610210919061270c565b60405180910390f35b610233600480360381019061022e9190611ffe565b610d2a565b6040516102499a99989796959493929190612736565b60405180910390f35b61026c600480360381019061026791906126b4565b610ebe565b604051610279919061270c565b60405180910390f35b61029c60048036038101906102979190611ffe565b610efd565b6040516102a99190612a21565b60405180910390f35b6102ba61132c565b6040516102c79190612c1e565b60405180910390f35b6102d861177e565b6040516102e5919061270c565b60405180910390f35b6102f6611784565b604051610303919061270c565b60405180910390f35b61032660048036038101906103219190612c40565b611791565b005b6000805461033590612d22565b80601f016020809104026020016040519081016040528092919081815260200182805461036190612d22565b80156103ae5780601f10610383576101008083540402835291602001916103ae565b820191906000526020600020905b81548152906001019060200180831161039157829003601f168201915b505050505081565b6060600182815481106103cc576103cb612d54565b5b90600052602060002090600c0201600a01805480602002602001604051908101604052809291908181526020016000905b8282101561051457838290600052602060002090600602016040518060c00160405290816000820160009054906101000a900473ffffffffffffffffffffffffffffffffffffffff1673ffffffffffffffffffffffffffffffffffffffff1673ffffffffffffffffffffffffffffffffffffffff1681526020016001820160009054906101000a900473ffffffffffffffffffffffffffffffffffffffff1673ffffffffffffffffffffffffffffffffffffffff1673ffffffffffffffffffffffffffffffffffffffff16815260200160028201548152602001600382015481526020016004820160009054906101000a900460ff16151515158152602001600582015481525050815260200190600101906103fd565b505050509050919050565b60606001828154811061053557610534612d54565b5b90600052602060002090600c0201600901805480602002602001604051908101604052809291908181526020016000905b8282101561062757838290600052602060002090600502016040518060a00160405290816000820160009054906101000a900473ffffffffffffffffffffffffffffffffffffffff1673ffffffffffffffffffffffffffffffffffffffff1673ffffffffffffffffffffffffffffffffffffffff16815260200160018201548152602001600282015481526020016003820160009054906101000a900460ff1615151515815260200160048201548152505081526020019060010190610566565b505050509050919050565b61063a611d34565b600061064584611938565b90506001818154811061065b5761065a612d54565b5b90600052602060002090600c0201600901838154811061067e5761067d612d54565b5b90600052602060002090600502016040518060a00160405290816000820160009054906101000a900473ffffffffffffffffffffffffffffffffffffffff1673ffffffffffffffffffffffffffffffffffffffff1673ffffffffffffffffffffffffffffffffffffffff16815260200160018201548152602001600282015481526020016003820160009054906101000a900460ff1615151515815260200160048201548152505091505092915050565b600061073a86611938565b905060007fffffffffffffffffffffffffffffffffffffffffffffffffffffffffffffffff905060006001838154811061077757610776612d54565b5b90600052602060002090600c020160090180549050905060005b818110156108695785600185815481106107ae576107ad612d54565b5b90600052602060002090600c020160090182815481106107d1576107d0612d54565b5b90600052602060002090600502016002015414801561084957508415156001858154811061080257610801612d54565b5b90600052602060002090600c0201600901828154811061082557610824612d54565b5b906000526020600020906005020160030160009054906101000a900460ff16151514155b1561085657809250610869565b808061086190612db2565b915050610791565b5060008212156109925760006040518060a001604052808973ffffffffffffffffffffffffffffffffffffffff1681526020018881526020018781526020018615158152602001428152509050600184815481106108ca576108c9612d54565b5b90600052602060002090600c020160090181908060018154018082558091505060019003906000526020600020906005020160009091909190915060008201518160000160006101000a81548173ffffffffffffffffffffffffffffffffffffffff021916908373ffffffffffffffffffffffffffffffffffffffff160217905550602082015181600101556040820151816002015560608201518160030160006101000a81548160ff02191690831515021790555060808201518160040155505050610b8e565b60008290506000600185815481106109ad576109ac612d54565b5b90600052602060002090600c020160090182815481106109d0576109cf612d54565b5b906000526020600020906005020160000160009054906101000a900473ffffffffffffffffffffffffffffffffffffffff16905060006040518060c001604052808373ffffffffffffffffffffffffffffffffffffffff1681526020018b73ffffffffffffffffffffffffffffffffffffffff1681526020018a81526020018981526020018815158152602001428152509050610a6d8684611abe565b60018681548110610a8157610a80612d54565b5b90600052602060002090600c0201600a0181908060018154018082558091505060019003906000526020600020906006020160009091909190915060008201518160000160006101000a81548173ffffffffffffffffffffffffffffffffffffffff021916908373ffffffffffffffffffffffffffffffffffffffff16021790555060208201518160010160006101000a81548173ffffffffffffffffffffffffffffffffffffffff021916908373ffffffffffffffffffffffffffffffffffffffff160217905550604082015181600201556060820151816003015560808201518160040160006101000a81548160ff02191690831515021790555060a0820151816005015550505050505b5050505050505050565b610ba0611d7b565b6000610bab84611938565b905060018181548110610bc157610bc0612d54565b5b90600052602060002090600c0201600a018381548110610be457610be3612d54565b5b90600052602060002090600602016040518060c00160405290816000820160009054906101000a900473ffffffffffffffffffffffffffffffffffffffff1673ffffffffffffffffffffffffffffffffffffffff1673ffffffffffffffffffffffffffffffffffffffff1681526020016001820160009054906101000a900473ffffffffffffffffffffffffffffffffffffffff1673ffffffffffffffffffffffffffffffffffffffff1673ffffffffffffffffffffffffffffffffffffffff16815260200160028201548152602001600382015481526020016004820160009054906101000a900460ff1615151515815260200160058201548152505091505092915050565b600080610cf783611938565b905060018181548110610d0d57610d0c612d54565b5b90600052602060002090600c0201600a0180549050915050919050565b60018181548110610d3a57600080fd5b90600052602060002090600c02016000915090508060000154908060010160009054906101000a900473ffffffffffffffffffffffffffffffffffffffff1690806002018054610d8990612d22565b80601f0160208091040260200160405190810160405280929190818152602001828054610db590612d22565b8015610e025780601f10610dd757610100808354040283529160200191610e02565b820191906000526020600020905b815481529060010190602001808311610de557829003601f168201915b505050505090806003018054610e1790612d22565b80601f0160208091040260200160405190810160405280929190818152602001828054610e4390612d22565b8015610e905780601f10610e6557610100808354040283529160200191610e90565b820191906000526020600020905b815481529060010190602001808311610e7357829003601f168201915b50505050509080600401549080600501549080600601549080600701549080600801549080600b015490508a565b600080610eca83611938565b905060018181548110610ee057610edf612d54565b5b90600052602060002090600c020160090180549050915050919050565b610f05611ddf565b60018281548110610f1957610f18612d54565b5b90600052602060002090600c020160405180610180016040529081600082015481526020016001820160009054906101000a900473ffffffffffffffffffffffffffffffffffffffff1673ffffffffffffffffffffffffffffffffffffffff1673ffffffffffffffffffffffffffffffffffffffff168152602001600282018054610fa390612d22565b80601f0160208091040260200160405190810160405280929190818152602001828054610fcf90612d22565b801561101c5780601f10610ff15761010080835404028352916020019161101c565b820191906000526020600020905b815481529060010190602001808311610fff57829003601f168201915b5050505050815260200160038201805461103590612d22565b80601f016020809104026020016040519081016040528092919081815260200182805461106190612d22565b80156110ae5780601f10611083576101008083540402835291602001916110ae565b820191906000526020600020905b81548152906001019060200180831161109157829003601f168201915b50505050508152602001600482015481526020016005820154815260200160068201548152602001600782015481526020016008820154815260200160098201805480602002602001604051908101604052809291908181526020016000905b828210156111cf57838290600052602060002090600502016040518060a00160405290816000820160009054906101000a900473ffffffffffffffffffffffffffffffffffffffff1673ffffffffffffffffffffffffffffffffffffffff1673ffffffffffffffffffffffffffffffffffffffff16815260200160018201548152602001600282015481526020016003820160009054906101000a900460ff161515151581526020016004820154815250508152602001906001019061110e565b505050508152602001600a8201805480602002602001604051908101604052809291908181526020016000905b8282101561131357838290600052602060002090600602016040518060c00160405290816000820160009054906101000a900473ffffffffffffffffffffffffffffffffffffffff1673ffffffffffffffffffffffffffffffffffffffff1673ffffffffffffffffffffffffffffffffffffffff1681526020016001820160009054906101000a900473ffffffffffffffffffffffffffffffffffffffff1673ffffffffffffffffffffffffffffffffffffffff1673ffffffffffffffffffffffffffffffffffffffff16815260200160028201548152602001600382015481526020016004820160009054906101000a900460ff16151515158152602001600582015481525050815260200190600101906111fc565b505050508152602001600b820154815250509050919050565b60606001805480602002602001604051908101604052809291908181526020016000905b8282101561177557838290600052602060002090600c020160405180610180016040529081600082015481526020016001820160009054906101000a900473ffffffffffffffffffffffffffffffffffffffff1673ffffffffffffffffffffffffffffffffffffffff1673ffffffffffffffffffffffffffffffffffffffff1681526020016002820180546113e490612d22565b80601f016020809104026020016040519081016040528092919081815260200182805461141090612d22565b801561145d5780601f106114325761010080835404028352916020019161145d565b820191906000526020600020905b81548152906001019060200180831161144057829003601f168201915b5050505050815260200160038201805461147690612d22565b80601f01602080910402602001604051908101604052809291908181526020018280546114a290612d22565b80156114ef5780601f106114c4576101008083540402835291602001916114ef565b820191906000526020600020905b8154815290600101906020018083116114d257829003601f168201915b50505050508152602001600482015481526020016005820154815260200160068201548152602001600782015481526020016008820154815260200160098201805480602002602001604051908101604052809291908181526020016000905b8282101561161057838290600052602060002090600502016040518060a00160405290816000820160009054906101000a900473ffffffffffffffffffffffffffffffffffffffff1673ffffffffffffffffffffffffffffffffffffffff1673ffffffffffffffffffffffffffffffffffffffff16815260200160018201548152602001600282015481526020016003820160009054906101000a900460ff161515151581526020016004820154815250508152602001906001019061154f565b505050508152602001600a8201805480602002602001604051908101604052809291908181526020016000905b8282101561175457838290600052602060002090600602016040518060c00160405290816000820160009054906101000a900473ffffffffffffffffffffffffffffffffffffffff1673ffffffffffffffffffffffffffffffffffffffff1673ffffffffffffffffffffffffffffffffffffffff1681526020016001820160009054906101000a900473ffffffffffffffffffffffffffffffffffffffff1673ffffffffffffffffffffffffffffffffffffffff1673ffffffffffffffffffffffffffffffffffffffff16815260200160028201548152602001600382015481526020016004820160009054906101000a900460ff161515151581526020016005820154815250508152602001906001019061163d565b505050508152602001600b8201548152505081526020019060010190611350565b50505050905090565b60025481565b6000600180549050905090565b60028451116117d5576040517f08c379a00000000000000000000000000000000000000000000000000000000081526004016117cc90612e6d565b60405180910390fd5b600583511180156117e7575060338351105b611826576040517f08c379a000000000000000000000000000000000000000000000000000000000815260040161181d90612eff565b60405180910390fd5b6001808160018154018082558091505003906000526020600020905050600060016002548154811061185b5761185a612d54565b5b90600052602060002090600c0201905060025481600001819055508481600201908051906020019061188e929190611e56565b50838160030190805190602001906118a7929190611e56565b50858160010160006101000a81548173ffffffffffffffffffffffffffffffffffffffff021916908373ffffffffffffffffffffffffffffffffffffffff1602179055508181600401819055508181600501819055508281600701819055508281600801819055508281600601819055506002600081548092919061192b90612db2565b9190505550505050505050565b600080600180549050905060007fffffffffffffffffffffffffffffffffffffffffffffffffffffffffffffffff905060005b82811015611a6f57611a2a6001828154811061198a57611989612d54565b5b90600052602060002090600c020160020180546119a690612d22565b80601f01602080910402602001604051908101604052809291908181526020018280546119d290612d22565b8015611a1f5780601f106119f457610100808354040283529160200191611a1f565b820191906000526020600020905b815481529060010190602001808311611a0257829003601f168201915b505050505086611cdb565b15611a5c5760018181548110611a4357611a42612d54565b5b90600052602060002090600c0201600001549150611a6f565b8080611a6790612db2565b91505061196b565b506000811215611ab4576040517f08c379a0000000000000000000000000000000000000000000000000000000008152600401611aab90612f6b565b60405180910390fd5b8092505050919050565b60006001808481548110611ad557611ad4612d54565b5b90600052602060002090600c020160090180549050611af49190612f8b565b905060018381548110611b0a57611b09612d54565b5b90600052602060002090600c02016009018181548110611b2d57611b2c612d54565b5b906000526020600020906005020160018481548110611b4f57611b4e612d54565b5b90600052602060002090600c02016009018381548110611b7257611b71612d54565b5b90600052602060002090600502016000820160009054906101000a900473ffffffffffffffffffffffffffffffffffffffff168160000160006101000a81548173ffffffffffffffffffffffffffffffffffffffff021916908373ffffffffffffffffffffffffffffffffffffffff16021790555060018201548160010155600282015481600201556003820160009054906101000a900460ff168160030160006101000a81548160ff0219169083151502179055506004820154816004015590505060018381548110611c4957611c48612d54565b5b90600052602060002090600c0201600901805480611c6a57611c69612fbf565b5b6001900381819060005260206000209060050201600080820160006101000a81549073ffffffffffffffffffffffffffffffffffffffff0219169055600182016000905560028201600090556003820160006101000a81549060ff0219169055600482016000905550509055505050565b600081604051602001611cee919061302a565b6040516020818303038152906040528051906020012083604051602001611d15919061302a565b6040516020818303038152906040528051906020012014905092915050565b6040518060a00160405280600073ffffffffffffffffffffffffffffffffffffffff1681526020016000815260200160008152602001600015158152602001600081525090565b6040518060c00160405280600073ffffffffffffffffffffffffffffffffffffffff168152602001600073ffffffffffffffffffffffffffffffffffffffff1681526020016000815260200160008152602001600015158152602001600081525090565b60405180610180016040528060008152602001600073ffffffffffffffffffffffffffffffffffffffff168152602001606081526020016060815260200160008152602001600081526020016000815260200160008152602001600081526020016060815260200160608152602001600081525090565b828054611e6290612d22565b90600052602060002090601f016020900481019282611e845760008555611ecb565b82601f10611e9d57805160ff1916838001178555611ecb565b82800160010185558215611ecb579182015b82811115611eca578251825591602001919060010190611eaf565b5b509050611ed89190611edc565b5090565b5b80821115611ef5576000816000905550600101611edd565b5090565b600081519050919050565b600082825260208201905092915050565b60005b83811015611f33578082015181840152602081019050611f18565b83811115611f42576000848401525b50505050565b6000601f19601f8301169050919050565b6000611f6482611ef9565b611f6e8185611f04565b9350611f7e818560208601611f15565b611f8781611f48565b840191505092915050565b60006020820190508181036000830152611fac8184611f59565b905092915050565b6000604051905090565b600080fd5b600080fd5b6000819050919050565b611fdb81611fc8565b8114611fe657600080fd5b50565b600081359050611ff881611fd2565b92915050565b60006020828403121561201457612013611fbe565b5b600061202284828501611fe9565b91505092915050565b600081519050919050565b600082825260208201905092915050565b6000819050602082019050919050565b600073ffffffffffffffffffffffffffffffffffffffff82169050919050565b600061208282612057565b9050919050565b61209281612077565b82525050565b6120a181611fc8565b82525050565b60008115159050919050565b6120bc816120a7565b82525050565b60c0820160008201516120d86000850182612089565b5060208201516120eb6020850182612089565b5060408201516120fe6040850182612098565b5060608201516121116060850182612098565b50608082015161212460808501826120b3565b5060a082015161213760a0850182612098565b50505050565b600061214983836120c2565b60c08301905092915050565b6000602082019050919050565b600061216d8261202b565b6121778185612036565b935061218283612047565b8060005b838110156121b357815161219a888261213d565b97506121a583612155565b925050600181019050612186565b5085935050505092915050565b600060208201905081810360008301526121da8184612162565b905092915050565b600081519050919050565b600082825260208201905092915050565b6000819050602082019050919050565b60a0820160008201516122246000850182612089565b5060208201516122376020850182612098565b50604082015161224a6040850182612098565b50606082015161225d60608501826120b3565b5060808201516122706080850182612098565b50505050565b6000612282838361220e565b60a08301905092915050565b6000602082019050919050565b60006122a6826121e2565b6122b081856121ed565b93506122bb836121fe565b8060005b838110156122ec5781516122d38882612276565b97506122de8361228e565b9250506001810190506122bf565b5085935050505092915050565b60006020820190508181036000830152612313818461229b565b905092915050565b600080fd5b600080fd5b7f4e487b7100000000000000000000000000000000000000000000000000000000600052604160045260246000fd5b61235d82611f48565b810181811067ffffffffffffffff8211171561237c5761237b612325565b5b80604052505050565b600061238f611fb4565b905061239b8282612354565b919050565b600067ffffffffffffffff8211156123bb576123ba612325565b5b6123c482611f48565b9050602081019050919050565b82818337600083830152505050565b60006123f36123ee846123a0565b612385565b90508281526020810184848401111561240f5761240e612320565b5b61241a8482856123d1565b509392505050565b600082601f8301126124375761243661231b565b5b81356124478482602086016123e0565b91505092915050565b6000806040838503121561246757612466611fbe565b5b600083013567ffffffffffffffff81111561248557612484611fc3565b5b61249185828601612422565b92505060206124a285828601611fe9565b9150509250929050565b60a0820160008201516124c26000850182612089565b5060208201516124d56020850182612098565b5060408201516124e86040850182612098565b5060608201516124fb60608501826120b3565b50608082015161250e6080850182612098565b50505050565b600060a08201905061252960008301846124ac565b92915050565b61253881612077565b811461254357600080fd5b50565b6000813590506125558161252f565b92915050565b612564816120a7565b811461256f57600080fd5b50565b6000813590506125818161255b565b92915050565b600080600080600060a086880312156125a3576125a2611fbe565b5b600086013567ffffffffffffffff8111156125c1576125c0611fc3565b5b6125cd88828901612422565b95505060206125de88828901612546565b94505060406125ef88828901611fe9565b935050606061260088828901611fe9565b925050608061261188828901612572565b9150509295509295909350565b60c0820160008201516126346000850182612089565b5060208201516126476020850182612089565b50604082015161265a6040850182612098565b50606082015161266d6060850182612098565b50608082015161268060808501826120b3565b5060a082015161269360a0850182612098565b50505050565b600060c0820190506126ae600083018461261e565b92915050565b6000602082840312156126ca576126c9611fbe565b5b600082013567ffffffffffffffff8111156126e8576126e7611fc3565b5b6126f484828501612422565b91505092915050565b61270681611fc8565b82525050565b600060208201905061272160008301846126fd565b92915050565b61273081612077565b82525050565b60006101408201905061274c600083018d6126fd565b612759602083018c612727565b818103604083015261276b818b611f59565b9050818103606083015261277f818a611f59565b905061278e60808301896126fd565b61279b60a08301886126fd565b6127a860c08301876126fd565b6127b560e08301866126fd565b6127c36101008301856126fd565b6127d16101208301846126fd565b9b9a5050505050505050505050565b600082825260208201905092915050565b60006127fc82611ef9565b61280681856127e0565b9350612816818560208601611f15565b61281f81611f48565b840191505092915050565b600082825260208201905092915050565b6000612846826121e2565b612850818561282a565b935061285b836121fe565b8060005b8381101561288c5781516128738882612276565b975061287e8361228e565b92505060018101905061285f565b5085935050505092915050565b600082825260208201905092915050565b60006128b58261202b565b6128bf8185612899565b93506128ca83612047565b8060005b838110156128fb5781516128e2888261213d565b97506128ed83612155565b9250506001810190506128ce565b5085935050505092915050565b6000610180830160008301516129216000860182612098565b5060208301516129346020860182612089565b506040830151848203604086015261294c82826127f1565b9150506060830151848203606086015261296682826127f1565b915050608083015161297b6080860182612098565b5060a083015161298e60a0860182612098565b5060c08301516129a160c0860182612098565b5060e08301516129b460e0860182612098565b506101008301516129c9610100860182612098565b506101208301518482036101208601526129e3828261283b565b9150506101408301518482036101408601526129ff82826128aa565b915050610160830151612a16610160860182612098565b508091505092915050565b60006020820190508181036000830152612a3b8184612908565b905092915050565b600081519050919050565b600082825260208201905092915050565b6000819050602082019050919050565b600061018083016000830151612a886000860182612098565b506020830151612a9b6020860182612089565b5060408301518482036040860152612ab382826127f1565b91505060608301518482036060860152612acd82826127f1565b9150506080830151612ae26080860182612098565b5060a0830151612af560a0860182612098565b5060c0830151612b0860c0860182612098565b5060e0830151612b1b60e0860182612098565b50610100830151612b30610100860182612098565b50610120830151848203610120860152612b4a828261283b565b915050610140830151848203610140860152612b6682826128aa565b915050610160830151612b7d610160860182612098565b508091505092915050565b6000612b948383612a6f565b905092915050565b6000602082019050919050565b6000612bb482612a43565b612bbe8185612a4e565b935083602082028501612bd085612a5f565b8060005b85811015612c0c5784840389528151612bed8582612b88565b9450612bf883612b9c565b925060208a01995050600181019050612bd4565b50829750879550505050505092915050565b60006020820190508181036000830152612c388184612ba9565b905092915050565b600080600080600060a08688031215612c5c57612c5b611fbe565b5b6000612c6a88828901612546565b955050602086013567ffffffffffffffff811115612c8b57612c8a611fc3565b5b612c9788828901612422565b945050604086013567ffffffffffffffff811115612cb857612cb7611fc3565b5b612cc488828901612422565b9350506060612cd588828901611fe9565b9250506080612ce688828901611fe9565b9150509295509295909350565b7f4e487b7100000000000000000000000000000000000000000000000000000000600052602260045260246000fd5b60006002820490506001821680612d3a57607f821691505b60208210811415612d4e57612d4d612cf3565b5b50919050565b7f4e487b7100000000000000000000000000000000000000000000000000000000600052603260045260246000fd5b7f4e487b7100000000000000000000000000000000000000000000000000000000600052601160045260246000fd5b6000612dbd82611fc8565b91507fffffffffffffffffffffffffffffffffffffffffffffffffffffffffffffffff821415612df057612def612d83565b5b600182019050919050565b7f53796d626f6c206d757374206861766520697473206c656e677468206772656160008201527f746572207468616e203200000000000000000000000000000000000000000000602082015250565b6000612e57602a83611f04565b9150612e6282612dfb565b604082019050919050565b60006020820190508181036000830152612e8681612e4a565b9050919050565b7f4465736372697074696f6e206d757374206861766520697473206c656e67746860008201527f206265747765656e203620616e64203530206368617261637465727300000000602082015250565b6000612ee9603c83611f04565b9150612ef482612e8d565b604082019050919050565b60006020820190508181036000830152612f1881612edc565b9050919050565b7f496e76616c69642041737365742053796d626f6c000000000000000000000000600082015250565b6000612f55601483611f04565b9150612f6082612f1f565b602082019050919050565b60006020820190508181036000830152612f8481612f48565b9050919050565b6000612f9682611fc8565b9150612fa183611fc8565b925082821015612fb457612fb3612d83565b5b828203905092915050565b7f4e487b7100000000000000000000000000000000000000000000000000000000600052603160045260246000fd5b600081905092915050565b600061300482611ef9565b61300e8185612fee565b935061301e818560208601611f15565b80840191505092915050565b60006130368284612ff9565b91508190509291505056fea2646970667358221220343f059dca33bd28fab45b859e70a08fd9c58773587fd9d20459d84da76a7e7a64736f6c63430008090033446f77204a6f6e657320496e647573747269616c204176657261676520496e646578",
  "linkReferences": {},
  "deployedLinkReferences": {}
}